Archive member included because of file (symbol)

c:/freescale/kds_3.0.0/toolchain/bin/../lib/gcc/arm-none-eabi/4.8.4/../../../../arm-none-eabi/lib/armv7e-m/fpu\libm.a(lib_a-s_fpclassify.o)
                              ./COMMON/CustoMath/CustoMath.o (__fpclassifyd)
c:/freescale/kds_3.0.0/toolchain/bin/../lib/gcc/arm-none-eabi/4.8.4/../../../../arm-none-eabi/lib/armv7e-m/fpu\libm.a(lib_a-s_modf.o)
                              ./COMMON/CustoMath/CustoMath.o (modf)
c:/freescale/kds_3.0.0/toolchain/bin/../lib/gcc/arm-none-eabi/4.8.4/../../../../arm-none-eabi/lib/armv7e-m/fpu\libm.a(lib_a-s_signbit.o)
                              ./COMMON/CustoMath/CustoMath.o (__signbitf)
c:/freescale/kds_3.0.0/toolchain/bin/../lib/gcc/arm-none-eabi/4.8.4/../../../../arm-none-eabi/lib/armv7e-m/fpu\libm.a(lib_a-sf_cos.o)
                              ./COMMON/CustoMath/CustoMath.o (cosf)
c:/freescale/kds_3.0.0/toolchain/bin/../lib/gcc/arm-none-eabi/4.8.4/../../../../arm-none-eabi/lib/armv7e-m/fpu\libm.a(lib_a-sf_fpclassify.o)
                              ./COMMON/CustoMath/CustoMath.o (__fpclassifyf)
c:/freescale/kds_3.0.0/toolchain/bin/../lib/gcc/arm-none-eabi/4.8.4/../../../../arm-none-eabi/lib/armv7e-m/fpu\libm.a(lib_a-sf_modf.o)
                              ./COMMON/CustoMath/CustoMath.o (modff)
c:/freescale/kds_3.0.0/toolchain/bin/../lib/gcc/arm-none-eabi/4.8.4/../../../../arm-none-eabi/lib/armv7e-m/fpu\libm.a(lib_a-sf_round.o)
                              ./COMMON/CustoMath/CustoMath.o (roundf)
c:/freescale/kds_3.0.0/toolchain/bin/../lib/gcc/arm-none-eabi/4.8.4/../../../../arm-none-eabi/lib/armv7e-m/fpu\libm.a(lib_a-sf_sin.o)
                              ./COMMON/CustoMath/CustoMath.o (sinf)
c:/freescale/kds_3.0.0/toolchain/bin/../lib/gcc/arm-none-eabi/4.8.4/../../../../arm-none-eabi/lib/armv7e-m/fpu\libm.a(lib_a-w_pow.o)
                              ./COMMON/CustoMath/WaveFit.o (pow)
c:/freescale/kds_3.0.0/toolchain/bin/../lib/gcc/arm-none-eabi/4.8.4/../../../../arm-none-eabi/lib/armv7e-m/fpu\libm.a(lib_a-w_sqrt.o)
                              ./COMMON/CustoMath/CustoMath.o (sqrt)
c:/freescale/kds_3.0.0/toolchain/bin/../lib/gcc/arm-none-eabi/4.8.4/../../../../arm-none-eabi/lib/armv7e-m/fpu\libm.a(lib_a-wf_atan2.o)
                              ./COMMON/CustoMath/CustoMath.o (atan2f)
c:/freescale/kds_3.0.0/toolchain/bin/../lib/gcc/arm-none-eabi/4.8.4/../../../../arm-none-eabi/lib/armv7e-m/fpu\libm.a(lib_a-wf_fmod.o)
                              ./COMMON/CustoMath/CustoMath.o (fmodf)
c:/freescale/kds_3.0.0/toolchain/bin/../lib/gcc/arm-none-eabi/4.8.4/../../../../arm-none-eabi/lib/armv7e-m/fpu\libm.a(lib_a-wf_pow.o)
                              ./COMMON/CustoMath/WaveFit.o (powf)
c:/freescale/kds_3.0.0/toolchain/bin/../lib/gcc/arm-none-eabi/4.8.4/../../../../arm-none-eabi/lib/armv7e-m/fpu\libm.a(lib_a-e_pow.o)
                              c:/freescale/kds_3.0.0/toolchain/bin/../lib/gcc/arm-none-eabi/4.8.4/../../../../arm-none-eabi/lib/armv7e-m/fpu\libm.a(lib_a-w_pow.o) (__ieee754_pow)
c:/freescale/kds_3.0.0/toolchain/bin/../lib/gcc/arm-none-eabi/4.8.4/../../../../arm-none-eabi/lib/armv7e-m/fpu\libm.a(lib_a-e_sqrt.o)
                              c:/freescale/kds_3.0.0/toolchain/bin/../lib/gcc/arm-none-eabi/4.8.4/../../../../arm-none-eabi/lib/armv7e-m/fpu\libm.a(lib_a-w_sqrt.o) (__ieee754_sqrt)
c:/freescale/kds_3.0.0/toolchain/bin/../lib/gcc/arm-none-eabi/4.8.4/../../../../arm-none-eabi/lib/armv7e-m/fpu\libm.a(lib_a-ef_atan2.o)
                              c:/freescale/kds_3.0.0/toolchain/bin/../lib/gcc/arm-none-eabi/4.8.4/../../../../arm-none-eabi/lib/armv7e-m/fpu\libm.a(lib_a-wf_atan2.o) (__ieee754_atan2f)
c:/freescale/kds_3.0.0/toolchain/bin/../lib/gcc/arm-none-eabi/4.8.4/../../../../arm-none-eabi/lib/armv7e-m/fpu\libm.a(lib_a-ef_fmod.o)
                              c:/freescale/kds_3.0.0/toolchain/bin/../lib/gcc/arm-none-eabi/4.8.4/../../../../arm-none-eabi/lib/armv7e-m/fpu\libm.a(lib_a-wf_fmod.o) (__ieee754_fmodf)
c:/freescale/kds_3.0.0/toolchain/bin/../lib/gcc/arm-none-eabi/4.8.4/../../../../arm-none-eabi/lib/armv7e-m/fpu\libm.a(lib_a-ef_pow.o)
                              c:/freescale/kds_3.0.0/toolchain/bin/../lib/gcc/arm-none-eabi/4.8.4/../../../../arm-none-eabi/lib/armv7e-m/fpu\libm.a(lib_a-wf_pow.o) (__ieee754_powf)
c:/freescale/kds_3.0.0/toolchain/bin/../lib/gcc/arm-none-eabi/4.8.4/../../../../arm-none-eabi/lib/armv7e-m/fpu\libm.a(lib_a-ef_rem_pio2.o)
                              c:/freescale/kds_3.0.0/toolchain/bin/../lib/gcc/arm-none-eabi/4.8.4/../../../../arm-none-eabi/lib/armv7e-m/fpu\libm.a(lib_a-sf_cos.o) (__ieee754_rem_pio2f)
c:/freescale/kds_3.0.0/toolchain/bin/../lib/gcc/arm-none-eabi/4.8.4/../../../../arm-none-eabi/lib/armv7e-m/fpu\libm.a(lib_a-ef_sqrt.o)
                              c:/freescale/kds_3.0.0/toolchain/bin/../lib/gcc/arm-none-eabi/4.8.4/../../../../arm-none-eabi/lib/armv7e-m/fpu\libm.a(lib_a-ef_pow.o) (__ieee754_sqrtf)
c:/freescale/kds_3.0.0/toolchain/bin/../lib/gcc/arm-none-eabi/4.8.4/../../../../arm-none-eabi/lib/armv7e-m/fpu\libm.a(lib_a-kf_cos.o)
                              c:/freescale/kds_3.0.0/toolchain/bin/../lib/gcc/arm-none-eabi/4.8.4/../../../../arm-none-eabi/lib/armv7e-m/fpu\libm.a(lib_a-sf_cos.o) (__kernel_cosf)
c:/freescale/kds_3.0.0/toolchain/bin/../lib/gcc/arm-none-eabi/4.8.4/../../../../arm-none-eabi/lib/armv7e-m/fpu\libm.a(lib_a-kf_rem_pio2.o)
                              c:/freescale/kds_3.0.0/toolchain/bin/../lib/gcc/arm-none-eabi/4.8.4/../../../../arm-none-eabi/lib/armv7e-m/fpu\libm.a(lib_a-ef_rem_pio2.o) (__kernel_rem_pio2f)
c:/freescale/kds_3.0.0/toolchain/bin/../lib/gcc/arm-none-eabi/4.8.4/../../../../arm-none-eabi/lib/armv7e-m/fpu\libm.a(lib_a-kf_sin.o)
                              c:/freescale/kds_3.0.0/toolchain/bin/../lib/gcc/arm-none-eabi/4.8.4/../../../../arm-none-eabi/lib/armv7e-m/fpu\libm.a(lib_a-sf_cos.o) (__kernel_sinf)
c:/freescale/kds_3.0.0/toolchain/bin/../lib/gcc/arm-none-eabi/4.8.4/../../../../arm-none-eabi/lib/armv7e-m/fpu\libm.a(lib_a-s_fabs.o)
                              c:/freescale/kds_3.0.0/toolchain/bin/../lib/gcc/arm-none-eabi/4.8.4/../../../../arm-none-eabi/lib/armv7e-m/fpu\libm.a(lib_a-e_pow.o) (fabs)
c:/freescale/kds_3.0.0/toolchain/bin/../lib/gcc/arm-none-eabi/4.8.4/../../../../arm-none-eabi/lib/armv7e-m/fpu\libm.a(lib_a-s_finite.o)
                              c:/freescale/kds_3.0.0/toolchain/bin/../lib/gcc/arm-none-eabi/4.8.4/../../../../arm-none-eabi/lib/armv7e-m/fpu\libm.a(lib_a-w_pow.o) (finite)
c:/freescale/kds_3.0.0/toolchain/bin/../lib/gcc/arm-none-eabi/4.8.4/../../../../arm-none-eabi/lib/armv7e-m/fpu\libm.a(lib_a-s_lib_ver.o)
                              c:/freescale/kds_3.0.0/toolchain/bin/../lib/gcc/arm-none-eabi/4.8.4/../../../../arm-none-eabi/lib/armv7e-m/fpu\libm.a(lib_a-w_pow.o) (__fdlib_version)
c:/freescale/kds_3.0.0/toolchain/bin/../lib/gcc/arm-none-eabi/4.8.4/../../../../arm-none-eabi/lib/armv7e-m/fpu\libm.a(lib_a-s_matherr.o)
                              c:/freescale/kds_3.0.0/toolchain/bin/../lib/gcc/arm-none-eabi/4.8.4/../../../../arm-none-eabi/lib/armv7e-m/fpu\libm.a(lib_a-w_pow.o) (matherr)
c:/freescale/kds_3.0.0/toolchain/bin/../lib/gcc/arm-none-eabi/4.8.4/../../../../arm-none-eabi/lib/armv7e-m/fpu\libm.a(lib_a-s_nan.o)
                              c:/freescale/kds_3.0.0/toolchain/bin/../lib/gcc/arm-none-eabi/4.8.4/../../../../arm-none-eabi/lib/armv7e-m/fpu\libm.a(lib_a-e_pow.o) (nan)
c:/freescale/kds_3.0.0/toolchain/bin/../lib/gcc/arm-none-eabi/4.8.4/../../../../arm-none-eabi/lib/armv7e-m/fpu\libm.a(lib_a-s_rint.o)
                              c:/freescale/kds_3.0.0/toolchain/bin/../lib/gcc/arm-none-eabi/4.8.4/../../../../arm-none-eabi/lib/armv7e-m/fpu\libm.a(lib_a-w_pow.o) (rint)
c:/freescale/kds_3.0.0/toolchain/bin/../lib/gcc/arm-none-eabi/4.8.4/../../../../arm-none-eabi/lib/armv7e-m/fpu\libm.a(lib_a-s_scalbn.o)
                              c:/freescale/kds_3.0.0/toolchain/bin/../lib/gcc/arm-none-eabi/4.8.4/../../../../arm-none-eabi/lib/armv7e-m/fpu\libm.a(lib_a-e_pow.o) (scalbn)
c:/freescale/kds_3.0.0/toolchain/bin/../lib/gcc/arm-none-eabi/4.8.4/../../../../arm-none-eabi/lib/armv7e-m/fpu\libm.a(lib_a-sf_atan.o)
                              c:/freescale/kds_3.0.0/toolchain/bin/../lib/gcc/arm-none-eabi/4.8.4/../../../../arm-none-eabi/lib/armv7e-m/fpu\libm.a(lib_a-ef_atan2.o) (atanf)
c:/freescale/kds_3.0.0/toolchain/bin/../lib/gcc/arm-none-eabi/4.8.4/../../../../arm-none-eabi/lib/armv7e-m/fpu\libm.a(lib_a-sf_fabs.o)
                              c:/freescale/kds_3.0.0/toolchain/bin/../lib/gcc/arm-none-eabi/4.8.4/../../../../arm-none-eabi/lib/armv7e-m/fpu\libm.a(lib_a-ef_atan2.o) (fabsf)
c:/freescale/kds_3.0.0/toolchain/bin/../lib/gcc/arm-none-eabi/4.8.4/../../../../arm-none-eabi/lib/armv7e-m/fpu\libm.a(lib_a-sf_finite.o)
                              c:/freescale/kds_3.0.0/toolchain/bin/../lib/gcc/arm-none-eabi/4.8.4/../../../../arm-none-eabi/lib/armv7e-m/fpu\libm.a(lib_a-wf_pow.o) (finitef)
c:/freescale/kds_3.0.0/toolchain/bin/../lib/gcc/arm-none-eabi/4.8.4/../../../../arm-none-eabi/lib/armv7e-m/fpu\libm.a(lib_a-sf_floor.o)
                              c:/freescale/kds_3.0.0/toolchain/bin/../lib/gcc/arm-none-eabi/4.8.4/../../../../arm-none-eabi/lib/armv7e-m/fpu\libm.a(lib_a-kf_rem_pio2.o) (floorf)
c:/freescale/kds_3.0.0/toolchain/bin/../lib/gcc/arm-none-eabi/4.8.4/../../../../arm-none-eabi/lib/armv7e-m/fpu\libm.a(lib_a-sf_nan.o)
                              c:/freescale/kds_3.0.0/toolchain/bin/../lib/gcc/arm-none-eabi/4.8.4/../../../../arm-none-eabi/lib/armv7e-m/fpu\libm.a(lib_a-ef_pow.o) (nanf)
c:/freescale/kds_3.0.0/toolchain/bin/../lib/gcc/arm-none-eabi/4.8.4/../../../../arm-none-eabi/lib/armv7e-m/fpu\libm.a(lib_a-sf_scalbn.o)
                              c:/freescale/kds_3.0.0/toolchain/bin/../lib/gcc/arm-none-eabi/4.8.4/../../../../arm-none-eabi/lib/armv7e-m/fpu\libm.a(lib_a-ef_pow.o) (scalbnf)
c:/freescale/kds_3.0.0/toolchain/bin/../lib/gcc/arm-none-eabi/4.8.4/../../../../arm-none-eabi/lib/armv7e-m/fpu\libm.a(lib_a-s_copysign.o)
                              c:/freescale/kds_3.0.0/toolchain/bin/../lib/gcc/arm-none-eabi/4.8.4/../../../../arm-none-eabi/lib/armv7e-m/fpu\libm.a(lib_a-s_scalbn.o) (copysign)
c:/freescale/kds_3.0.0/toolchain/bin/../lib/gcc/arm-none-eabi/4.8.4/../../../../arm-none-eabi/lib/armv7e-m/fpu\libm.a(lib_a-sf_copysign.o)
                              c:/freescale/kds_3.0.0/toolchain/bin/../lib/gcc/arm-none-eabi/4.8.4/../../../../arm-none-eabi/lib/armv7e-m/fpu\libm.a(lib_a-sf_scalbn.o) (copysignf)
c:/freescale/kds_3.0.0/toolchain/bin/../lib/gcc/arm-none-eabi/4.8.4/armv7e-m/fpu\libgcc.a(_arm_addsubdf3.o)
                              ./COMMON/CustoMath/CustoMath.o (__aeabi_dsub)
c:/freescale/kds_3.0.0/toolchain/bin/../lib/gcc/arm-none-eabi/4.8.4/armv7e-m/fpu\libgcc.a(_arm_muldivdf3.o)
                              ./COMMON/CustoMath/CustoMath.o (__aeabi_dmul)
c:/freescale/kds_3.0.0/toolchain/bin/../lib/gcc/arm-none-eabi/4.8.4/armv7e-m/fpu\libgcc.a(_arm_cmpdf2.o)
                              c:/freescale/kds_3.0.0/toolchain/bin/../lib/gcc/arm-none-eabi/4.8.4/../../../../arm-none-eabi/lib/armv7e-m/fpu\libm.a(lib_a-w_pow.o) (__aeabi_dcmpeq)
c:/freescale/kds_3.0.0/toolchain/bin/../lib/gcc/arm-none-eabi/4.8.4/armv7e-m/fpu\libgcc.a(_arm_fixunsdfsi.o)
                              ./COMMON/CustoMath/CustoMath.o (__aeabi_d2uiz)
c:/freescale/kds_3.0.0/toolchain/bin/../lib/gcc/arm-none-eabi/4.8.4/armv7e-m/fpu\libgcc.a(_arm_truncdfsf2.o)
                              ./COMMON/CustoMath/CustoMath.o (__aeabi_d2f)
c:/freescale/kds_3.0.0/toolchain/bin/../lib/gcc/arm-none-eabi/4.8.4/armv7e-m/fpu\libgcc.a(_fixunsdfdi.o)
                              ./COMMON/CustoMath/CustoMath.o (__aeabi_d2ulz)
c:/freescale/kds_3.0.0/toolchain/bin/../lib/gcc/arm-none-eabi/4.8.4/../../../../arm-none-eabi/lib/armv7e-m/fpu\libg_s.a(lib_a-errno.o)
                              c:/freescale/kds_3.0.0/toolchain/bin/../lib/gcc/arm-none-eabi/4.8.4/../../../../arm-none-eabi/lib/armv7e-m/fpu\libm.a(lib_a-w_pow.o) (__errno)
c:/freescale/kds_3.0.0/toolchain/bin/../lib/gcc/arm-none-eabi/4.8.4/../../../../arm-none-eabi/lib/armv7e-m/fpu\libg_s.a(lib_a-exit.o)
                              c:/freescale/kds_3.0.0/toolchain/bin/../lib/gcc/arm-none-eabi/4.8.4/../../../../arm-none-eabi/lib/armv7e-m/fpu/crt0.o (exit)
c:/freescale/kds_3.0.0/toolchain/bin/../lib/gcc/arm-none-eabi/4.8.4/../../../../arm-none-eabi/lib/armv7e-m/fpu\libg_s.a(lib_a-impure.o)
                              c:/freescale/kds_3.0.0/toolchain/bin/../lib/gcc/arm-none-eabi/4.8.4/../../../../arm-none-eabi/lib/armv7e-m/fpu\libg_s.a(lib_a-exit.o) (_global_impure_ptr)
c:/freescale/kds_3.0.0/toolchain/bin/../lib/gcc/arm-none-eabi/4.8.4/../../../../arm-none-eabi/lib/armv7e-m/fpu\libg_s.a(lib_a-init.o)
                              c:/freescale/kds_3.0.0/toolchain/bin/../lib/gcc/arm-none-eabi/4.8.4/../../../../arm-none-eabi/lib/armv7e-m/fpu/crt0.o (__libc_init_array)
c:/freescale/kds_3.0.0/toolchain/bin/../lib/gcc/arm-none-eabi/4.8.4/../../../../arm-none-eabi/lib/armv7e-m/fpu\libg_s.a(lib_a-lcltime.o)
                              ./COMMON/CustoMath/CustoMath.o (localtime)
c:/freescale/kds_3.0.0/toolchain/bin/../lib/gcc/arm-none-eabi/4.8.4/../../../../arm-none-eabi/lib/armv7e-m/fpu\libg_s.a(lib_a-lcltime_r.o)
                              c:/freescale/kds_3.0.0/toolchain/bin/../lib/gcc/arm-none-eabi/4.8.4/../../../../arm-none-eabi/lib/armv7e-m/fpu\libg_s.a(lib_a-lcltime.o) (localtime_r)
c:/freescale/kds_3.0.0/toolchain/bin/../lib/gcc/arm-none-eabi/4.8.4/../../../../arm-none-eabi/lib/armv7e-m/fpu\libg_s.a(lib_a-malloc.o)
                              ./LIB_STORAGE/STORAGE_Ctrl.o (malloc)
c:/freescale/kds_3.0.0/toolchain/bin/../lib/gcc/arm-none-eabi/4.8.4/../../../../arm-none-eabi/lib/armv7e-m/fpu\libg_s.a(lib_a-memcpy-stub.o)
                              ./LIB_STORAGE/STORAGE_Ctrl.o (memcpy)
c:/freescale/kds_3.0.0/toolchain/bin/../lib/gcc/arm-none-eabi/4.8.4/../../../../arm-none-eabi/lib/armv7e-m/fpu\libg_s.a(lib_a-memset.o)
                              c:/freescale/kds_3.0.0/toolchain/bin/../lib/gcc/arm-none-eabi/4.8.4/../../../../arm-none-eabi/lib/armv7e-m/fpu/crt0.o (memset)
c:/freescale/kds_3.0.0/toolchain/bin/../lib/gcc/arm-none-eabi/4.8.4/../../../../arm-none-eabi/lib/armv7e-m/fpu\libg_s.a(lib_a-mktime.o)
                              ./COMMON/CustoMath/CustoMath.o (mktime)
c:/freescale/kds_3.0.0/toolchain/bin/../lib/gcc/arm-none-eabi/4.8.4/../../../../arm-none-eabi/lib/armv7e-m/fpu\libg_s.a(lib_a-mktm_r.o)
                              c:/freescale/kds_3.0.0/toolchain/bin/../lib/gcc/arm-none-eabi/4.8.4/../../../../arm-none-eabi/lib/armv7e-m/fpu\libg_s.a(lib_a-mktime.o) (__tzcalc_limits)
c:/freescale/kds_3.0.0/toolchain/bin/../lib/gcc/arm-none-eabi/4.8.4/../../../../arm-none-eabi/lib/armv7e-m/fpu\libg_s.a(lib_a-nano-freer.o)
                              c:/freescale/kds_3.0.0/toolchain/bin/../lib/gcc/arm-none-eabi/4.8.4/../../../../arm-none-eabi/lib/armv7e-m/fpu\libg_s.a(lib_a-malloc.o) (_free_r)
c:/freescale/kds_3.0.0/toolchain/bin/../lib/gcc/arm-none-eabi/4.8.4/../../../../arm-none-eabi/lib/armv7e-m/fpu\libg_s.a(lib_a-nano-mallocr.o)
                              c:/freescale/kds_3.0.0/toolchain/bin/../lib/gcc/arm-none-eabi/4.8.4/../../../../arm-none-eabi/lib/armv7e-m/fpu\libg_s.a(lib_a-malloc.o) (_malloc_r)
c:/freescale/kds_3.0.0/toolchain/bin/../lib/gcc/arm-none-eabi/4.8.4/../../../../arm-none-eabi/lib/armv7e-m/fpu\libg_s.a(lib_a-sbrkr.o)
                              c:/freescale/kds_3.0.0/toolchain/bin/../lib/gcc/arm-none-eabi/4.8.4/../../../../arm-none-eabi/lib/armv7e-m/fpu\libg_s.a(lib_a-nano-mallocr.o) (_sbrk_r)
c:/freescale/kds_3.0.0/toolchain/bin/../lib/gcc/arm-none-eabi/4.8.4/../../../../arm-none-eabi/lib/armv7e-m/fpu\libg_s.a(lib_a-tzlock.o)
                              c:/freescale/kds_3.0.0/toolchain/bin/../lib/gcc/arm-none-eabi/4.8.4/../../../../arm-none-eabi/lib/armv7e-m/fpu\libg_s.a(lib_a-mktime.o) (__tz_lock)
c:/freescale/kds_3.0.0/toolchain/bin/../lib/gcc/arm-none-eabi/4.8.4/../../../../arm-none-eabi/lib/armv7e-m/fpu\libg_s.a(lib_a-tzvars.o)
                              c:/freescale/kds_3.0.0/toolchain/bin/../lib/gcc/arm-none-eabi/4.8.4/../../../../arm-none-eabi/lib/armv7e-m/fpu\libg_s.a(lib_a-mktime.o) (_daylight)
c:/freescale/kds_3.0.0/toolchain/bin/../lib/gcc/arm-none-eabi/4.8.4/../../../../arm-none-eabi/lib/armv7e-m/fpu\libg_s.a(lib_a-div.o)
                              c:/freescale/kds_3.0.0/toolchain/bin/../lib/gcc/arm-none-eabi/4.8.4/../../../../arm-none-eabi/lib/armv7e-m/fpu\libg_s.a(lib_a-mktime.o) (div)
c:/freescale/kds_3.0.0/toolchain/bin/../lib/gcc/arm-none-eabi/4.8.4/../../../../arm-none-eabi/lib/armv7e-m/fpu\libg_s.a(lib_a-gettzinfo.o)
                              c:/freescale/kds_3.0.0/toolchain/bin/../lib/gcc/arm-none-eabi/4.8.4/../../../../arm-none-eabi/lib/armv7e-m/fpu\libg_s.a(lib_a-mktime.o) (__gettzinfo)
c:/freescale/kds_3.0.0/toolchain/bin/../lib/gcc/arm-none-eabi/4.8.4/../../../../arm-none-eabi/lib/armv7e-m/fpu\libg_s.a(lib_a-reent.o)
                              c:/freescale/kds_3.0.0/toolchain/bin/../lib/gcc/arm-none-eabi/4.8.4/../../../../arm-none-eabi/lib/armv7e-m/fpu\libg_s.a(lib_a-sbrkr.o) (errno)
c:/freescale/kds_3.0.0/toolchain/bin/../lib/gcc/arm-none-eabi/4.8.4/../../../../arm-none-eabi/lib/armv7e-m/fpu\libnosys.a(sbrk.o)
                              c:/freescale/kds_3.0.0/toolchain/bin/../lib/gcc/arm-none-eabi/4.8.4/../../../../arm-none-eabi/lib/armv7e-m/fpu\libg_s.a(lib_a-sbrkr.o) (_sbrk)
c:/freescale/kds_3.0.0/toolchain/bin/../lib/gcc/arm-none-eabi/4.8.4/../../../../arm-none-eabi/lib/armv7e-m/fpu\libnosys.a(_exit.o)
                              c:/freescale/kds_3.0.0/toolchain/bin/../lib/gcc/arm-none-eabi/4.8.4/../../../../arm-none-eabi/lib/armv7e-m/fpu\libg_s.a(lib_a-exit.o) (_exit)

Allocating common symbols
Common symbol       size              file

IIC_DataBuffer      0x78              ./DRV_IIC/IIC.o
IIC_DataAddrIndex   0x3               ./DRV_IIC/IIC.o
IIC_PrevStepCnt     0x6               ./DRV_IIC/IIC.o
errno               0x4               c:/freescale/kds_3.0.0/toolchain/bin/../lib/gcc/arm-none-eabi/4.8.4/../../../../arm-none-eabi/lib/armv7e-m/fpu\libg_s.a(lib_a-reent.o)
SPI_LastBufIndex    0x6               ./DRV_SPI/SPI.o
IIC_IdleStepCnt     0x6               ./DRV_IIC/IIC.o
IIC_CurrStepCnt     0x6               ./DRV_IIC/IIC.o
SPI_InpBuffer       0x1830            ./DRV_SPI/SPI.o
VUR_LogTable        0x200             ./COMMON/VarUpdate/VUR.o
Timer               0x3e8             ./DRV_PIT/PIT.o
DlogBuffer          0xff              ./LIB_DATALOGGER/DATALOGGER_Ctrl.o
ListOfAlarms        0x3c              ./DEV_RTC/RTC.o
IIC_Length          0x3               ./DRV_IIC/IIC.o
Test_Status         0x1               ./SOURCE/APP/APP.o
IIC_IntVecCurrState
                    0x3               ./DRV_IIC/IIC.o
MemoryConfig        0x14              ./LIB_STORAGE/STORAGE_Ctrl.o
SPI_CurrBufIndex    0x6               ./DRV_SPI/SPI.o
VUR_VolTable        0x80              ./COMMON/VarUpdate/VUR.o
IIC_CurrIndex       0x3               ./DRV_IIC/IIC.o
VUR_ExtTable        0x100             ./COMMON/VarUpdate/VUR.o
SPI_OutBuffer       0x1830            ./DRV_SPI/SPI.o
RTC_CurrentTimeStamp
                    0x4               ./DEV_RTC/RTC.o

Discarded input sections

 .text          0x00000000        0x0 c:/freescale/kds_3.0.0/toolchain/bin/../lib/gcc/arm-none-eabi/4.8.4/armv7e-m/fpu/crti.o
 .data          0x00000000        0x0 c:/freescale/kds_3.0.0/toolchain/bin/../lib/gcc/arm-none-eabi/4.8.4/armv7e-m/fpu/crti.o
 .bss           0x00000000        0x0 c:/freescale/kds_3.0.0/toolchain/bin/../lib/gcc/arm-none-eabi/4.8.4/armv7e-m/fpu/crti.o
 .data          0x00000000        0x4 c:/freescale/kds_3.0.0/toolchain/bin/../lib/gcc/arm-none-eabi/4.8.4/armv7e-m/fpu/crtbegin.o
 .data          0x00000000        0x0 c:/freescale/kds_3.0.0/toolchain/bin/../lib/gcc/arm-none-eabi/4.8.4/../../../../arm-none-eabi/lib/armv7e-m/fpu/crt0.o
 .bss           0x00000000        0x0 c:/freescale/kds_3.0.0/toolchain/bin/../lib/gcc/arm-none-eabi/4.8.4/../../../../arm-none-eabi/lib/armv7e-m/fpu/crt0.o
 .ARM.extab     0x00000000        0x0 c:/freescale/kds_3.0.0/toolchain/bin/../lib/gcc/arm-none-eabi/4.8.4/../../../../arm-none-eabi/lib/armv7e-m/fpu/crt0.o
 .text          0x00000000        0x0 ./SOURCE/MAPS/DATALOGGER_Map.o
 .data          0x00000000        0x0 ./SOURCE/MAPS/DATALOGGER_Map.o
 .bss           0x00000000        0x0 ./SOURCE/MAPS/DATALOGGER_Map.o
 .text          0x00000000        0x0 ./SOURCE/MAPS/STORAGE_MAP.o
 .data          0x00000000        0x0 ./SOURCE/MAPS/STORAGE_MAP.o
 .bss           0x00000000        0x0 ./SOURCE/MAPS/STORAGE_MAP.o
 .text          0x00000000        0x0 ./SOURCE/MAPS/VARMAP.o
 .data          0x00000000        0x0 ./SOURCE/MAPS/VARMAP.o
 .bss           0x00000000        0x0 ./SOURCE/MAPS/VARMAP.o
 .text          0x00000000        0x0 ./SOURCE/APP/APP.o
 .data          0x00000000        0x0 ./SOURCE/APP/APP.o
Memory Configuration

Name             Origin             Length             Attributes
m_interrupts     0x00000000         0x00000400         xr
m_flash_config   0x00000400         0x00000010         xr
m_text           0x00000410         0x000ffbf0         xr
m_data           0x1fff0000         0x00030000         rw
m_data_2         0x20020000         0x00010000         rw
*default*        0x00000000         0xffffffff

Linker script and memory map

LOAD c:/freescale/kds_3.0.0/toolchain/bin/../lib/gcc/arm-none-eabi/4.8.4/armv7e-m/fpu/crti.o
LOAD c:/freescale/kds_3.0.0/toolchain/bin/../lib/gcc/arm-none-eabi/4.8.4/armv7e-m/fpu/crtbegin.o
LOAD c:/freescale/kds_3.0.0/toolchain/bin/../lib/gcc/arm-none-eabi/4.8.4/../../../../arm-none-eabi/lib/armv7e-m/fpu/crt0.o
LOAD ./SOURCE/MAPS/DATALOGGER_Map.o
LOAD ./SOURCE/MAPS/STORAGE_MAP.o
LOAD ./SOURCE/MAPS/VARMAP.o
LOAD ./SOURCE/APP/APP.o
LOAD ./SOURCE/APP/Debug.o
LOAD ./Project_Settings/Startup_Code/startup.o
LOAD ./Project_Settings/Startup_Code/startup_MK64F12.o
LOAD ./Project_Settings/Startup_Code/system_MK64F12.o
LOAD ./LIB_STORAGE/STORAGE_Ctrl.o
LOAD ./LIB_STORAGE/STORAGE_Link.o
LOAD ./LIB_DATALOGGER/DATALOGGER_Ctrl.o
LOAD ./LIB_DATALOGGER/DATALOGGER_Link.o
LOAD ./DRV_SPI/SPI.o
LOAD ./DRV_SPI/SPI_interrupts.o
LOAD ./DRV_PIT/PIT.o
LOAD ./DRV_IIC/IIC.o
LOAD ./DRV_IIC/IIC_interrupts.o
LOAD ./DRV_GPIO/GPIO.o
LOAD ./DRV_GPIO/GPIO_interrupts.o
LOAD ./DEV_RTC/RTC.o
LOAD ./DEV_MEMORY/LOWER/OPERATION/FLASH_LOWER_OP.o
LOAD ./DEV_MEMORY/LOWER/MANAGER/INTERFACE/FLASH_LOWER_MNG_INTF.o
LOAD ./DEV_MEMORY/LOWER/MANAGER/FLASH_LOWER_MNG.o
LOAD ./DEV_MEMORY/LOWER/FLASH_LOWER.o
LOAD ./DEV_MEMORY/IDTABLE/FLASH_IDTABLE.o
LOAD ./DEV_MEMORY/FLASH.o
LOAD ./COMMON/VarUpdate/VUR.o
LOAD ./COMMON/StdHeaders/StdDebug.o
LOAD ./COMMON/Endianness/endianness.o
LOAD ./COMMON/CustoMath/CustoMath.o
LOAD ./COMMON/CustoMath/MatrixOper.o
LOAD ./COMMON/CustoMath/WaveFit.o
LOAD ./COMMON/Checksum/checksum.o
LOAD ./APPFEAT_LOGCOORD/LogCoordinator.o
LOAD ./APPFEAT_ALARMMNG/AlarmManager.o
LOAD c:/freescale/kds_3.0.0/toolchain/bin/../lib/gcc/arm-none-eabi/4.8.4/../../../../arm-none-eabi/lib/armv7e-m/fpu\libstdc++_s.a
LOAD c:/freescale/kds_3.0.0/toolchain/bin/../lib/gcc/arm-none-eabi/4.8.4/../../../../arm-none-eabi/lib/armv7e-m/fpu\libm.a
START GROUP
LOAD c:/freescale/kds_3.0.0/toolchain/bin/../lib/gcc/arm-none-eabi/4.8.4/armv7e-m/fpu\libgcc.a
LOAD c:/freescale/kds_3.0.0/toolchain/bin/../lib/gcc/arm-none-eabi/4.8.4/../../../../arm-none-eabi/lib/armv7e-m/fpu\libg_s.a
LOAD c:/freescale/kds_3.0.0/toolchain/bin/../lib/gcc/arm-none-eabi/4.8.4/../../../../arm-none-eabi/lib/armv7e-m/fpu\libc_s.a
END GROUP
START GROUP
LOAD c:/freescale/kds_3.0.0/toolchain/bin/../lib/gcc/arm-none-eabi/4.8.4/armv7e-m/fpu\libgcc.a
LOAD c:/freescale/kds_3.0.0/toolchain/bin/../lib/gcc/arm-none-eabi/4.8.4/../../../../arm-none-eabi/lib/armv7e-m/fpu\libc_s.a
LOAD c:/freescale/kds_3.0.0/toolchain/bin/../lib/gcc/arm-none-eabi/4.8.4/../../../../arm-none-eabi/lib/armv7e-m/fpu\libnosys.a
END GROUP
START GROUP
LOAD c:/freescale/kds_3.0.0/toolchain/bin/../lib/gcc/arm-none-eabi/4.8.4/armv7e-m/fpu\libgcc.a
LOAD c:/freescale/kds_3.0.0/toolchain/bin/../lib/gcc/arm-none-eabi/4.8.4/../../../../arm-none-eabi/lib/armv7e-m/fpu\libc_s.a
LOAD c:/freescale/kds_3.0.0/toolchain/bin/../lib/gcc/arm-none-eabi/4.8.4/../../../../arm-none-eabi/lib/armv7e-m/fpu\libnosys.a
END GROUP
LOAD c:/freescale/kds_3.0.0/toolchain/bin/../lib/gcc/arm-none-eabi/4.8.4/armv7e-m/fpu/crtend.o
LOAD c:/freescale/kds_3.0.0/toolchain/bin/../lib/gcc/arm-none-eabi/4.8.4/armv7e-m/fpu/crtn.o
                0x00000400                HEAP_SIZE = DEFINED (__heap_size__)?__heap_size__:0x400
                0x00000400                STACK_SIZE = DEFINED (__stack_size__)?__stack_size__:0x400
                0x00000000                M_VECTOR_RAM_SIZE = DEFINED (__ram_vector_table__)?0x400:0x0

.interrupts     0x00000000      0x400
                0x00000000                __VECTOR_TABLE = .
                0x00000000                . = ALIGN (0x4)
 *(.isr_vector)
 .isr_vector    0x00000000      0x400 ./Project_Settings/Startup_Code/startup_MK64F12.o
                0x00000000                __isr_vector
                0x00000400                . = ALIGN (0x4)

.flash_config   0x00000400       0x10
                0x00000400                . = ALIGN (0x4)
 *(.FlashConfig)
 .FlashConfig   0x00000400       0x10 ./Project_Settings/Startup_Code/startup_MK64F12.o
                0x00000410                . = ALIGN (0x4)

.text           0x00000410     0xb744
                0x00000410                . = ALIGN (0x4)
 *(.text)
 .text          0x00000410       0x54 c:/freescale/kds_3.0.0/toolchain/bin/../lib/gcc/arm-none-eabi/4.8.4/armv7e-m/fpu/crtbegin.o
 .text          0x00000464       0x74 c:/freescale/kds_3.0.0/toolchain/bin/../lib/gcc/arm-none-eabi/4.8.4/../../../../arm-none-eabi/lib/armv7e-m/fpu/crt0.o
                0x00000464                _start
                0x00000464                _mainCRTStartup
 .text          0x000004d8       0x14 ./Project_Settings/Startup_Code/startup_MK64F12.o
                0x000004d8                Reset_Handler
                0x000004e8                DebugMon_Handler
                0x000004e8                HardFault_Handler
                0x000004e8                SysTick_Handler
                0x000004e8                UART3_RX_TX_IRQHandler
                0x000004e8                PendSV_Handler
                0x000004e8                NMI_Handler
                0x000004e8                UART0_RX_TX_IRQHandler
                0x000004e8                DMA2_IRQHandler
                0x000004e8                ENET_Error_IRQHandler
                0x000004e8                CAN0_Tx_Warning_IRQHandler
                0x000004e8                PIT0_IRQHandler
                0x000004e8                CAN0_ORed_Message_buffer_IRQHandler
                0x000004e8                CMP2_IRQHandler
                0x000004e8                LLWU_IRQHandler
                0x000004e8                ENET_Receive_IRQHandler
                0x000004e8                ENET_1588_Timer_IRQHandler
                0x000004e8                UART2_RX_TX_IRQHandler
                0x000004e8                SWI_IRQHandler
                0x000004e8                ADC0_IRQHandler
                0x000004e8                UsageFault_Handler
                0x000004e8                I2S0_Tx_IRQHandler
                0x000004e8                CMT_IRQHandler
                0x000004e8                UART4_RX_TX_IRQHandler
                0x000004e8                DefaultISR
                0x000004e8                DMA9_IRQHandler
                0x000004e8                DMA14_IRQHandler
                0x000004e8                CMP1_IRQHandler
                0x000004e8                Reserved71_IRQHandler
                0x000004e8                UART4_ERR_IRQHandler
                0x000004e8                ADC1_IRQHandler
                0x000004e8                PIT2_IRQHandler
                0x000004e8                I2S0_Rx_IRQHandler
                0x000004e8                DMA5_IRQHandler
                0x000004e8                RTC_IRQHandler
                0x000004e8                PDB0_IRQHandler
                0x000004e8                CAN0_Rx_Warning_IRQHandler
                0x000004e8                FTM1_IRQHandler
                0x000004e8                UART5_RX_TX_IRQHandler
                0x000004e8                UART3_ERR_IRQHandler
                0x000004e8                PIT3_IRQHandler
                0x000004e8                SDHC_IRQHandler
                0x000004e8                RTC_Seconds_IRQHandler
                0x000004e8                MCG_IRQHandler
                0x000004e8                FTFE_IRQHandler
                0x000004e8                UART2_ERR_IRQHandler
                0x000004e8                DMA11_IRQHandler
                0x000004e8                UART5_ERR_IRQHandler
                0x000004e8                Read_Collision_IRQHandler
                0x000004e8                DMA7_IRQHandler
                0x000004e8                ENET_Transmit_IRQHandler
                0x000004e8                USBDCD_IRQHandler
                0x000004e8                USB0_IRQHandler
                0x000004e8                WDOG_EWM_IRQHandler
                0x000004e8                MemManage_Handler
                0x000004e8                SVC_Handler
                0x000004e8                DMA13_IRQHandler
                0x000004e8                DMA3_IRQHandler
                0x000004e8                UART0_LON_IRQHandler
                0x000004e8                RNG_IRQHandler
                0x000004e8                DMA0_IRQHandler
                0x000004e8                DMA15_IRQHandler
                0x000004e8                DAC0_IRQHandler
                0x000004e8                CAN0_Error_IRQHandler
                0x000004e8                DMA4_IRQHandler
                0x000004e8                PIT1_IRQHandler
                0x000004e8                UART0_ERR_IRQHandler
                0x000004e8                DMA_Error_IRQHandler
                0x000004e8                LVD_LVW_IRQHandler
                0x000004e8                SPI0_IRQHandler
                0x000004e8                FTM0_IRQHandler
                0x000004e8                DAC1_IRQHandler
                0x000004e8                MCM_IRQHandler
                0x000004e8                DMA12_IRQHandler
                0x000004e8                CAN0_Bus_Off_IRQHandler
                0x000004e8                FTM3_IRQHandler
                0x000004e8                FTM2_IRQHandler
                0x000004e8                LPTMR0_IRQHandler
                0x000004e8                BusFault_Handler
                0x000004e8                DMA8_IRQHandler
                0x000004e8                DMA10_IRQHandler
                0x000004e8                CAN0_Wake_Up_IRQHandler
                0x000004e8                UART1_ERR_IRQHandler
                0x000004e8                UART1_RX_TX_IRQHandler
                0x000004e8                CMP0_IRQHandler
                0x000004e8                DMA6_IRQHandler
                0x000004e8                DMA1_IRQHandler
 *(.text*)
 .text.main     0x000004ec       0xc4 ./SOURCE/APP/APP.o
                0x000004ec                main
 .text.init_data_bss
                0x000005b0       0xcc ./Project_Settings/Startup_Code/startup.o
                0x000005b0                init_data_bss
 .text.SystemInit
                0x0000067c      0x1a8 ./Project_Settings/Startup_Code/system_MK64F12.o
                0x0000067c                SystemInit
 .text.InitHardware
                0x00000824      0x168 ./LIB_STORAGE/STORAGE_Ctrl.o
                0x00000824                InitHardware
 .text.SaveBank
                0x0000098c      0x2dc ./LIB_STORAGE/STORAGE_Ctrl.o
                0x0000098c                SaveBank
 .text.RestoreBank
                0x00000c68      0x340 ./LIB_STORAGE/STORAGE_Ctrl.o
                0x00000c68                RestoreBank
 .text.DestroyBank
                0x00000fa8       0xfc ./LIB_STORAGE/STORAGE_Ctrl.o
                0x00000fa8                DestroyBank
 .text.GetVarMapData
                0x000010a4      0x1d0 ./LIB_STORAGE/STORAGE_Ctrl.o
                0x000010a4                GetVarMapData
 .text.STORAGE  0x00001274       0x14 ./LIB_STORAGE/STORAGE_Link.o
                0x00001274                STORAGE
 .text.STORAGE_StateMachine
                0x00001288      0x298 ./LIB_STORAGE/STORAGE_Link.o
 .text.STORAGE_ManageVURRequests
                0x00001520       0x40 ./LIB_STORAGE/STORAGE_Link.o
 .text.STORAGE_UpdateLibStatus
                0x00001560       0x34 ./LIB_STORAGE/STORAGE_Link.o
 .text.STORAGE_PrepareMapInfo
                0x00001594      0x11c ./LIB_STORAGE/STORAGE_Link.o
 .text.STORAGE_ShouldSaveMDB
                0x000016b0       0x38 ./LIB_STORAGE/STORAGE_Link.o
 .text.STORAGE_ShouldSaveNVV
                0x000016e8       0x28 ./LIB_STORAGE/STORAGE_Link.o
 .text.STORAGE_ShouldRestoreMDB
                0x00001710       0x28 ./LIB_STORAGE/STORAGE_Link.o
 .text.STORAGE_ShouldRestoreNVV
                0x00001738       0x28 ./LIB_STORAGE/STORAGE_Link.o
 .text.STORAGE_ShouldDestroyMDB
                0x00001760       0x28 ./LIB_STORAGE/STORAGE_Link.o
 .text.STORAGE_ShouldDestroyNVV
                0x00001788       0x28 ./LIB_STORAGE/STORAGE_Link.o
 .text.STORAGE_GetAddressFromBank
                0x000017b0       0x34 ./LIB_STORAGE/STORAGE_Link.o
 .text.DLOG_InitMemory
                0x000017e4      0x1dc ./LIB_DATALOGGER/DATALOGGER_Ctrl.o
                0x000017e4                DLOG_InitMemory
 .text.DLOG_ReadRecord
                0x000019c0       0xf8 ./LIB_DATALOGGER/DATALOGGER_Ctrl.o
                0x000019c0                DLOG_ReadRecord
 .text.DLOG_WriteRecord
                0x00001ab8      0x148 ./LIB_DATALOGGER/DATALOGGER_Ctrl.o
                0x00001ab8                DLOG_WriteRecord
 .text.DLOG_ResetRecordCount
                0x00001c00       0x48 ./LIB_DATALOGGER/DATALOGGER_Ctrl.o
                0x00001c00                DLOG_ResetRecordCount
 .text.DLOG_RTC_Seconds
                0x00001c48       0x24 ./LIB_DATALOGGER/DATALOGGER_Ctrl.o
                0x00001c48                DLOG_RTC_Seconds
 .text.DLOG_GetMemoryStatus
                0x00001c6c       0x38 ./LIB_DATALOGGER/DATALOGGER_Ctrl.o
                0x00001c6c                DLOG_GetMemoryStatus
 .text.DATALOGGER
                0x00001ca4      0x52c ./LIB_DATALOGGER/DATALOGGER_Link.o
                0x00001ca4                DATALOGGER
 .text.DLOG_CheckPeriodic
                0x000021d0      0x164 ./LIB_DATALOGGER/DATALOGGER_Link.o
 .text.NVIC_EnableIRQ
                0x00002334       0x30 ./DRV_SPI/SPI.o
 .text.NVIC_DisableIRQ
                0x00002364       0x34 ./DRV_SPI/SPI.o
 .text.SPI_Config
                0x00002398       0xf4 ./DRV_SPI/SPI.o
                0x00002398                SPI_Config
 .text.SPI_SendData
                0x0000248c      0x24c ./DRV_SPI/SPI.o
                0x0000248c                SPI_SendData
 .text.SPI_ReceiveData
                0x000026d8       0x34 ./DRV_SPI/SPI.o
                0x000026d8                SPI_ReceiveData
 .text.SPI_FullOperation
                0x0000270c      0x308 ./DRV_SPI/SPI.o
 .text.SPI_SetPeripheral
                0x00002a14      0x20c ./DRV_SPI/SPI.o
 .text.SPI_Reset
                0x00002c20       0x70 ./DRV_SPI/SPI.o
 .text.SPI_RstPeripheral
                0x00002c90       0xd0 ./DRV_SPI/SPI.o
 .text.SPI_PortEnable
                0x00002d60      0x104 ./DRV_SPI/SPI.o
 .text.SPI_PortDisable
                0x00002e64       0xec ./DRV_SPI/SPI.o
 .text.SPI_ConfigCSPin
                0x00002f50      0x124 ./DRV_SPI/SPI.o
 .text.SPI_EnableCSPin
                0x00003074       0xfc ./DRV_SPI/SPI.o
 .text.SPI_DisableCSPin
                0x00003170       0xe0 ./DRV_SPI/SPI.o
 .text.SPI1_IRQHandler
                0x00003250       0x74 ./DRV_SPI/SPI_interrupts.o
                0x00003250                SPI1_IRQHandler
 .text.SPI2_IRQHandler
                0x000032c4       0x78 ./DRV_SPI/SPI_interrupts.o
                0x000032c4                SPI2_IRQHandler
 .text.Set_Timer
                0x0000333c      0x114 ./DRV_PIT/PIT.o
                0x0000333c                Set_Timer
 .text.Get_Timer
                0x00003450       0xf0 ./DRV_PIT/PIT.o
                0x00003450                Get_Timer
 .text.PIT_ConfigurePeripheral
                0x00003540       0x68 ./DRV_PIT/PIT.o
 .text.NVIC_EnableIRQ
                0x000035a8       0x30 ./DRV_IIC/IIC.o
 .text.IIC_Send
                0x000035d8      0x6fc ./DRV_IIC/IIC.o
                0x000035d8                IIC_Send
 .text.IIC_Read
                0x00003cd4      0x6fc ./DRV_IIC/IIC.o
                0x00003cd4                IIC_Read
 .text.IIC_Reset
                0x000043d0       0x88 ./DRV_IIC/IIC.o
                0x000043d0                IIC_Reset
 .text.IIC_ResetIICPeripheral
                0x00004458      0x140 ./DRV_IIC/IIC.o
 .text.SetMuxForIIC
                0x00004598      0x124 ./DRV_IIC/IIC.o
 .text.SetMuxForSdaRead
                0x000046bc      0x130 ./DRV_IIC/IIC.o
 .text.ReadSdaPin
                0x000047ec       0x88 ./DRV_IIC/IIC.o
 .text.SetMuxForSclOut
                0x00004874      0x11c ./DRV_IIC/IIC.o
 .text.ResetMux
                0x00004990      0x128 ./DRV_IIC/IIC.o
 .text.I2C0_IRQHandler
                0x00004ab8        0xc ./DRV_IIC/IIC_interrupts.o
                0x00004ab8                I2C0_IRQHandler
 .text.I2C1_IRQHandler
                0x00004ac4        0xc ./DRV_IIC/IIC_interrupts.o
                0x00004ac4                I2C1_IRQHandler
 .text.I2C2_IRQHandler
                0x00004ad0        0xc ./DRV_IIC/IIC_interrupts.o
                0x00004ad0                I2C2_IRQHandler
 .text.IIC0_InterruptRoutine
                0x00004adc      0x334 ./DRV_IIC/IIC_interrupts.o
 .text.IIC1_InterruptRoutine
                0x00004e10      0x334 ./DRV_IIC/IIC_interrupts.o
 .text.IIC2_InterruptRoutine
                0x00005144      0x334 ./DRV_IIC/IIC_interrupts.o
 .text.PORTA_IRQHandler
                0x00005478       0x34 ./DRV_GPIO/GPIO_interrupts.o
                0x00005478                PORTA_IRQHandler
 .text.PORTB_IRQHandler
                0x000054ac       0x34 ./DRV_GPIO/GPIO_interrupts.o
                0x000054ac                PORTB_IRQHandler
 .text.PORTC_IRQHandler
                0x000054e0       0x34 ./DRV_GPIO/GPIO_interrupts.o
                0x000054e0                PORTC_IRQHandler
 .text.PORTD_IRQHandler
                0x00005514       0x34 ./DRV_GPIO/GPIO_interrupts.o
                0x00005514                PORTD_IRQHandler
 .text.PORTE_IRQHandler
                0x00005548       0x34 ./DRV_GPIO/GPIO_interrupts.o
                0x00005548                PORTE_IRQHandler
 .text.RTC_GetTimeStamp
                0x0000557c       0x2c ./DEV_RTC/RTC.o
                0x0000557c                RTC_GetTimeStamp
 .text.RTC_AcquireTimeStamp
                0x000055a8      0x1a4 ./DEV_RTC/RTC.o
 .text.RTC_RunStepVector
                0x0000574c       0xfc ./DEV_RTC/RTC.o
 .text.RTC_Send
                0x00005848       0xd0 ./DEV_RTC/RTC.o
 .text.RTC_Read
                0x00005918       0xcc ./DEV_RTC/RTC.o
 .text.RTC_GetFlags
                0x000059e4       0x34 ./DEV_RTC/RTC.o
 .text.RTC_SetST
                0x00005a18       0x48 ./DEV_RTC/RTC.o
 .text.RTC_ClearST
                0x00005a60       0x48 ./DEV_RTC/RTC.o
 .text.RTC_WaitOscStart
                0x00005aa8       0x74 ./DEV_RTC/RTC.o
 .text.RTC_ClearOscFailFlag
                0x00005b1c       0x28 ./DEV_RTC/RTC.o
 .text.RTC_ClearHaltFlag
                0x00005b44       0x1c ./DEV_RTC/RTC.o
 .text.RTC_GetDate
                0x00005b60       0x58 ./DEV_RTC/RTC.o
 .text.RTC_GetTime
                0x00005bb8       0x5c ./DEV_RTC/RTC.o
 .text.RTC_SetDate
                0x00005c14       0x3c ./DEV_RTC/RTC.o
 .text.RTC_SetTime
                0x00005c50       0x3c ./DEV_RTC/RTC.o
 .text.FSH_LWR_OP_HwInit
                0x00005c8c       0x88 ./DEV_MEMORY/LOWER/OPERATION/FLASH_LOWER_OP.o
                0x00005c8c                FSH_LWR_OP_HwInit
 .text.FSH_LWR_OP_CheckIdAndGetSize
                0x00005d14       0x80 ./DEV_MEMORY/LOWER/OPERATION/FLASH_LOWER_OP.o
                0x00005d14                FSH_LWR_OP_CheckIdAndGetSize
 .text.FSH_LWR_OP_GetDataBuffer
                0x00005d94       0x20 ./DEV_MEMORY/LOWER/OPERATION/FLASH_LOWER_OP.o
                0x00005d94                FSH_LWR_OP_GetDataBuffer
 .text.FSH_LWR_OP_ReadPage
                0x00005db4       0x1c ./DEV_MEMORY/LOWER/OPERATION/FLASH_LOWER_OP.o
                0x00005db4                FSH_LWR_OP_ReadPage
 .text.FSH_LWR_OP_WritePage
                0x00005dd0       0x1c ./DEV_MEMORY/LOWER/OPERATION/FLASH_LOWER_OP.o
                0x00005dd0                FSH_LWR_OP_WritePage
 .text.FSH_LWR_OP_CopyPage
                0x00005dec       0x54 ./DEV_MEMORY/LOWER/OPERATION/FLASH_LOWER_OP.o
                0x00005dec                FSH_LWR_OP_CopyPage
 .text.FSH_LWR_OP_IsBlockValid
                0x00005e40       0x28 ./DEV_MEMORY/LOWER/OPERATION/FLASH_LOWER_OP.o
                0x00005e40                FSH_LWR_OP_IsBlockValid
 .text.FSH_LWR_OP_MarkBlockAsInvalid
                0x00005e68       0x28 ./DEV_MEMORY/LOWER/OPERATION/FLASH_LOWER_OP.o
                0x00005e68                FSH_LWR_OP_MarkBlockAsInvalid
 .text.FSH_LWR_OP_EraseBlock
                0x00005e90       0x28 ./DEV_MEMORY/LOWER/OPERATION/FLASH_LOWER_OP.o
                0x00005e90                FSH_LWR_OP_EraseBlock
 .text.FSH_LWR_OP_StateMachine
                0x00005eb8      0x63c ./DEV_MEMORY/LOWER/OPERATION/FLASH_LOWER_OP.o
 .text.FSH_LWR_OP_ShouldTheLoopBeExecutedAgain
                0x000064f4       0x30 ./DEV_MEMORY/LOWER/OPERATION/FLASH_LOWER_OP.o
 .text.FSH_LWR_OP_RememberTheStateThatTheLoopBegan
                0x00006524       0x1c ./DEV_MEMORY/LOWER/OPERATION/FLASH_LOWER_OP.o
 .text.FSH_LWR_OP_RememberTheStateThatTheLoopEnded
                0x00006540       0x1c ./DEV_MEMORY/LOWER/OPERATION/FLASH_LOWER_OP.o
 .text.FSH_LWR_OP_HasStateChangedInThisLoop
                0x0000655c       0x28 ./DEV_MEMORY/LOWER/OPERATION/FLASH_LOWER_OP.o
 .text.FSH_LWR_OP_IsThisTheStateFirstCall
                0x00006584       0x28 ./DEV_MEMORY/LOWER/OPERATION/FLASH_LOWER_OP.o
 .text.FSH_LWR_OP_GetFirstPageFromBlock
                0x000065ac       0x1c ./DEV_MEMORY/LOWER/OPERATION/FLASH_LOWER_OP.o
 .text.FSH_LWR_OP_GetHowToReachPage
                0x000065c8       0x94 ./DEV_MEMORY/LOWER/OPERATION/FLASH_LOWER_OP.o
 .text.FSH_LWR_OP_TreatReturnAndIfSuccessProceedTo
                0x0000665c       0x4c ./DEV_MEMORY/LOWER/OPERATION/FLASH_LOWER_OP.o
 .text.FSH_LWR_OP_IsReturnSuccess
                0x000066a8       0x24 ./DEV_MEMORY/LOWER/OPERATION/FLASH_LOWER_OP.o
 .text.FSH_LWR_OP_IsReturnFailure
                0x000066cc       0x24 ./DEV_MEMORY/LOWER/OPERATION/FLASH_LOWER_OP.o
 .text.FSH_LWR_OP_IsStatusBusy
                0x000066f0       0x24 ./DEV_MEMORY/LOWER/OPERATION/FLASH_LOWER_OP.o
 .text.FSH_LWR_OP_IsStatusEccError
                0x00006714       0x3c ./DEV_MEMORY/LOWER/OPERATION/FLASH_LOWER_OP.o
 .text.FSH_LWR_OP_IsStatusProgramFail
                0x00006750       0x24 ./DEV_MEMORY/LOWER/OPERATION/FLASH_LOWER_OP.o
 .text.FSH_LWR_OP_IsStatusEraseFail
                0x00006774       0x24 ./DEV_MEMORY/LOWER/OPERATION/FLASH_LOWER_OP.o
 .text.FSH_LWR_OP_ClearCommandBuffer
                0x00006798       0x14 ./DEV_MEMORY/LOWER/OPERATION/FLASH_LOWER_OP.o
 .text.FSH_LWR_OP_AssembleCmd_ReadID
                0x000067ac       0x34 ./DEV_MEMORY/LOWER/OPERATION/FLASH_LOWER_OP.o
 .text.FSH_LWR_OP_AssembleCmd_PageRead
                0x000067e0       0x74 ./DEV_MEMORY/LOWER/OPERATION/FLASH_LOWER_OP.o
 .text.FSH_LWR_OP_AssembleCmd_ReadFromCacheX1
                0x00006854       0x4c ./DEV_MEMORY/LOWER/OPERATION/FLASH_LOWER_OP.o
 .text.FSH_LWR_OP_AssembleCmd_ReadFromCacheX1ForBlockStatus
                0x000068a0       0x60 ./DEV_MEMORY/LOWER/OPERATION/FLASH_LOWER_OP.o
 .text.FSH_LWR_OP_AssembleCmd_DisableSecurity
                0x00006900       0x3c ./DEV_MEMORY/LOWER/OPERATION/FLASH_LOWER_OP.o
 .text.FSH_LWR_OP_AssembleCmd_WriteEnable
                0x0000693c       0x2c ./DEV_MEMORY/LOWER/OPERATION/FLASH_LOWER_OP.o
 .text.FSH_LWR_OP_AssembleCmd_WriteDisable
                0x00006968       0x2c ./DEV_MEMORY/LOWER/OPERATION/FLASH_LOWER_OP.o
 .text.FSH_LWR_OP_AssembleCmd_ProgramLoadX1
                0x00006994       0x44 ./DEV_MEMORY/LOWER/OPERATION/FLASH_LOWER_OP.o
 .text.FSH_LWR_OP_AssembleCmd_ProgramLoadX1ForBlockStatus
                0x000069d8       0x68 ./DEV_MEMORY/LOWER/OPERATION/FLASH_LOWER_OP.o
 .text.FSH_LWR_OP_AssembleCmd_ProgramExecute
                0x00006a40       0x74 ./DEV_MEMORY/LOWER/OPERATION/FLASH_LOWER_OP.o
 .text.FSH_LWR_OP_AssembleCmd_BlockErase
                0x00006ab4       0x5c ./DEV_MEMORY/LOWER/OPERATION/FLASH_LOWER_OP.o
 .text.FSH_LWR_OP_AssembleCmd_GetFeaturesStatus
                0x00006b10       0x34 ./DEV_MEMORY/LOWER/OPERATION/FLASH_LOWER_OP.o
 .text.FSH_LWR_OP_AssembleCmd_SetFeaturesDieSelect
                0x00006b44       0x50 ./DEV_MEMORY/LOWER/OPERATION/FLASH_LOWER_OP.o
 .text.FSH_LWR_MNG_INTF_SetStartReserveBlock
                0x00006b94       0x58 ./DEV_MEMORY/LOWER/MANAGER/INTERFACE/FLASH_LOWER_MNG_INTF.o
                0x00006b94                FSH_LWR_MNG_INTF_SetStartReserveBlock
 .text.FSH_LWR_MNG_INTF_ReadReserveTable
                0x00006bec       0x10 ./DEV_MEMORY/LOWER/MANAGER/INTERFACE/FLASH_LOWER_MNG_INTF.o
                0x00006bec                FSH_LWR_MNG_INTF_ReadReserveTable
 .text.FSH_LWR_MNG_INTF_WriteReserveTable
                0x00006bfc       0x10 ./DEV_MEMORY/LOWER/MANAGER/INTERFACE/FLASH_LOWER_MNG_INTF.o
                0x00006bfc                FSH_LWR_MNG_INTF_WriteReserveTable
 .text.FSH_LWR_MNG_INTF_CopyBlock
                0x00006c0c      0x258 ./DEV_MEMORY/LOWER/MANAGER/INTERFACE/FLASH_LOWER_MNG_INTF.o
                0x00006c0c                FSH_LWR_MNG_INTF_CopyBlock
 .text.FlashLwrMngIntf_TableOp
                0x00006e64      0x164 ./DEV_MEMORY/LOWER/MANAGER/INTERFACE/FLASH_LOWER_MNG_INTF.o
 .text.FlashLwrMngIntf_GetFirstValidBlock
                0x00006fc8       0xc4 ./DEV_MEMORY/LOWER/MANAGER/INTERFACE/FLASH_LOWER_MNG_INTF.o
 .text.FlashLwrMngIntf_IsBlockInsideReserveTableRange
                0x0000708c       0x3c ./DEV_MEMORY/LOWER/MANAGER/INTERFACE/FLASH_LOWER_MNG_INTF.o
 .text.FSH_LWR_MNG_Prepare
                0x000070c8      0x1ec ./DEV_MEMORY/LOWER/MANAGER/FLASH_LOWER_MNG.o
                0x000070c8                FSH_LWR_MNG_Prepare
 .text.FSH_LWR_MNG_GetRealBlockCount
                0x000072b4       0x4c ./DEV_MEMORY/LOWER/MANAGER/FLASH_LOWER_MNG.o
                0x000072b4                FSH_LWR_MNG_GetRealBlockCount
 .text.FSH_LWR_MNG_ReadPage
                0x00007300      0x13c ./DEV_MEMORY/LOWER/MANAGER/FLASH_LOWER_MNG.o
                0x00007300                FSH_LWR_MNG_ReadPage
 .text.FSH_LWR_MNG_WritePage
                0x0000743c      0x214 ./DEV_MEMORY/LOWER/MANAGER/FLASH_LOWER_MNG.o
                0x0000743c                FSH_LWR_MNG_WritePage
 .text.FSH_LWR_MNG_EraseBlock
                0x00007650      0x148 ./DEV_MEMORY/LOWER/MANAGER/FLASH_LOWER_MNG.o
                0x00007650                FSH_LWR_MNG_EraseBlock
 .text.FlashLwrMng_CalculateMemoryLimits
                0x00007798       0x98 ./DEV_MEMORY/LOWER/MANAGER/FLASH_LOWER_MNG.o
 .text.FlashLwrMng_IsReserveTableInBufferValid
                0x00007830       0x70 ./DEV_MEMORY/LOWER/MANAGER/FLASH_LOWER_MNG.o
 .text.FlashLwrMng_GetReserveTableFromBuffer
                0x000078a0       0x28 ./DEV_MEMORY/LOWER/MANAGER/FLASH_LOWER_MNG.o
 .text.FlashLwrMng_CopyReserveTableToBuffer
                0x000078c8       0x28 ./DEV_MEMORY/LOWER/MANAGER/FLASH_LOWER_MNG.o
 .text.FlashLwrMng_GetNextAvailableReserveBlockFromTable
                0x000078f0       0x30 ./DEV_MEMORY/LOWER/MANAGER/FLASH_LOWER_MNG.o
 .text.FlashLwrMng_ClearReserveTable
                0x00007920       0x38 ./DEV_MEMORY/LOWER/MANAGER/FLASH_LOWER_MNG.o
 .text.FlashLwrMng_UpdateReserveTableCRCField
                0x00007958       0x1c ./DEV_MEMORY/LOWER/MANAGER/FLASH_LOWER_MNG.o
 .text.FlashLwrMng_CalculateCRCFromAReserveTable
                0x00007974       0x20 ./DEV_MEMORY/LOWER/MANAGER/FLASH_LOWER_MNG.o
 .text.FlashLwrMng_ReserveABlockFor
                0x00007994       0x98 ./DEV_MEMORY/LOWER/MANAGER/FLASH_LOWER_MNG.o
 .text.FlashLwrMng_GetBlockFromPage
                0x00007a2c       0x48 ./DEV_MEMORY/LOWER/MANAGER/FLASH_LOWER_MNG.o
 .text.FlashLwrMng_GetTargetBlockByReserveTable
                0x00007a74       0x64 ./DEV_MEMORY/LOWER/MANAGER/FLASH_LOWER_MNG.o
 .text.FSH_LWR_IntHwInit
                0x00007ad8       0x28 ./DEV_MEMORY/LOWER/FLASH_LOWER.o
                0x00007ad8                FSH_LWR_IntHwInit
 .text.FSH_LWR_ExtDevDiscovery
                0x00007b00      0x298 ./DEV_MEMORY/LOWER/FLASH_LOWER.o
                0x00007b00                FSH_LWR_ExtDevDiscovery
 .text.FSH_LWR_GetMemorySize
                0x00007d98       0x44 ./DEV_MEMORY/LOWER/FLASH_LOWER.o
                0x00007d98                FSH_LWR_GetMemorySize
 .text.FSH_LWR_WriteData
                0x00007ddc       0x24 ./DEV_MEMORY/LOWER/FLASH_LOWER.o
                0x00007ddc                FSH_LWR_WriteData
 .text.FSH_LWR_ReadData
                0x00007e00       0x24 ./DEV_MEMORY/LOWER/FLASH_LOWER.o
                0x00007e00                FSH_LWR_ReadData
 .text.FSH_LWR_Machine
                0x00007e24      0x2c4 ./DEV_MEMORY/LOWER/FLASH_LOWER.o
                0x00007e24                FSH_LWR_Machine
 .text.FSH_LWR_ProcessNewCommand
                0x000080e8       0x88 ./DEV_MEMORY/LOWER/FLASH_LOWER.o
 .text.FSH_LWR_GetAndReadLastRealPageFromVirtualPage
                0x00008170      0x144 ./DEV_MEMORY/LOWER/FLASH_LOWER.o
 .text.FSH_LWR_ResetDataBlock
                0x000082b4      0x320 ./DEV_MEMORY/LOWER/FLASH_LOWER.o
 .text.FSH_LWR_CalculateMemoryProperties
                0x000085d4       0xb8 ./DEV_MEMORY/LOWER/FLASH_LOWER.o
 .text.FSH_LWR_IsRedundancyPossibleInThisMemory
                0x0000868c       0x3c ./DEV_MEMORY/LOWER/FLASH_LOWER.o
 .text.FSH_LWR_HasDeviceBeenDiscovered
                0x000086c8       0x20 ./DEV_MEMORY/LOWER/FLASH_LOWER.o
 .text.FSH_LWR_IsMemDataValid
                0x000086e8       0x38 ./DEV_MEMORY/LOWER/FLASH_LOWER.o
 .text.FSH_LWR_AssembleValidMemData
                0x00008720       0x64 ./DEV_MEMORY/LOWER/FLASH_LOWER.o
 .text.FSH_LWR_CalculateCRCforMemData
                0x00008784       0x20 ./DEV_MEMORY/LOWER/FLASH_LOWER.o
 .text.FSH_LWR_IsVirtualAddressOutsideRange
                0x000087a4       0x48 ./DEV_MEMORY/LOWER/FLASH_LOWER.o
 .text.FSH_LWR_IsPointerInvalid
                0x000087ec       0x20 ./DEV_MEMORY/LOWER/FLASH_LOWER.o
 .text.FSH_LWR_GetBlockWhichPageIsFrom
                0x0000880c       0x24 ./DEV_MEMORY/LOWER/FLASH_LOWER.o
 .text.FSH_LWR_IsPageInTheBegginingOfABlock
                0x00008830       0x34 ./DEV_MEMORY/LOWER/FLASH_LOWER.o
 .text.FSH_LWR_AssembleValidPageHeader
                0x00008864       0x24 ./DEV_MEMORY/LOWER/FLASH_LOWER.o
 .text.FSH_LWR_IsPageThatWasReadValid
                0x00008888       0x3c ./DEV_MEMORY/LOWER/FLASH_LOWER.o
 .text.FSH_LWR_Get1stRealPageFromVirtualPage
                0x000088c4       0x34 ./DEV_MEMORY/LOWER/FLASH_LOWER.o
 .text.FSH_LWR_GetNextRealPageFromRealPage
                0x000088f8       0x38 ./DEV_MEMORY/LOWER/FLASH_LOWER.o
 .text.FSH_LWR_GetNextCopyPage
                0x00008930       0x40 ./DEV_MEMORY/LOWER/FLASH_LOWER.o
 .text.FSH_LWR_GetVirtualAddressingForRange
                0x00008970       0x7c ./DEV_MEMORY/LOWER/FLASH_LOWER.o
 .text.FSH_LWR_GetVirtualPageRangeFromBlockOfGivenVirtualPage
                0x000089ec       0x44 ./DEV_MEMORY/LOWER/FLASH_LOWER.o
 .text.FSH_TBL_Prepare
                0x00008a30      0x150 ./DEV_MEMORY/IDTABLE/FLASH_IDTABLE.o
                0x00008a30                FSH_TBL_Prepare
 .text.FSH_TBL_SettleID
                0x00008b80      0x148 ./DEV_MEMORY/IDTABLE/FLASH_IDTABLE.o
                0x00008b80                FSH_TBL_SettleID
 .text.FSH_TBL_GetAreaFromAnID
                0x00008cc8       0x84 ./DEV_MEMORY/IDTABLE/FLASH_IDTABLE.o
                0x00008cc8                FSH_TBL_GetAreaFromAnID
 .text.FSH_TBL_GetAreaFromAnIDsRegister
                0x00008d4c       0x90 ./DEV_MEMORY/IDTABLE/FLASH_IDTABLE.o
                0x00008d4c                FSH_TBL_GetAreaFromAnIDsRegister
 .text.FSH_TBL_GetRecordCount
                0x00008ddc       0x48 ./DEV_MEMORY/IDTABLE/FLASH_IDTABLE.o
                0x00008ddc                FSH_TBL_GetRecordCount
 .text.FSH_TBL_SetRecordCount
                0x00008e24      0x148 ./DEV_MEMORY/IDTABLE/FLASH_IDTABLE.o
                0x00008e24                FSH_TBL_SetRecordCount
 .text.FSHTBL_ReadMainTable
                0x00008f6c       0x18 ./DEV_MEMORY/IDTABLE/FLASH_IDTABLE.o
 .text.FSHTBL_ReadBackupTable
                0x00008f84       0x18 ./DEV_MEMORY/IDTABLE/FLASH_IDTABLE.o
 .text.FSHTBL_ReadATableAndStoreAt
                0x00008f9c       0x24 ./DEV_MEMORY/IDTABLE/FLASH_IDTABLE.o
 .text.FSHTBL_WriteMainTable
                0x00008fc0       0x18 ./DEV_MEMORY/IDTABLE/FLASH_IDTABLE.o
 .text.FSHTBL_WriteBackupTable
                0x00008fd8       0x18 ./DEV_MEMORY/IDTABLE/FLASH_IDTABLE.o
 .text.FSHTBL_WriteATableAndReadFrom
                0x00008ff0       0x24 ./DEV_MEMORY/IDTABLE/FLASH_IDTABLE.o
 .text.FSHTBL_OperateAnEepLwrRoutineForATable
                0x00009014       0x64 ./DEV_MEMORY/IDTABLE/FLASH_IDTABLE.o
 .text.FSHTBL_TreatMainTableAndFlagIfItHasBeenChanged
                0x00009078       0x60 ./DEV_MEMORY/IDTABLE/FLASH_IDTABLE.o
 .text.FSHTBL_TreatBackupTableAndFlagIfItHasBeenChanged
                0x000090d8       0x60 ./DEV_MEMORY/IDTABLE/FLASH_IDTABLE.o
 .text.FSHTBL_AllocateAreaForID
                0x00009138      0x1c4 ./DEV_MEMORY/IDTABLE/FLASH_IDTABLE.o
 .text.FSHTBL_CheckId
                0x000092fc       0x2c ./DEV_MEMORY/IDTABLE/FLASH_IDTABLE.o
 .text.FSHTBL_CheckIdAndPointer
                0x00009328       0x30 ./DEV_MEMORY/IDTABLE/FLASH_IDTABLE.o
 .text.FSHTBL_CheckIdAndPointers
                0x00009358       0x34 ./DEV_MEMORY/IDTABLE/FLASH_IDTABLE.o
 .text.FSHTBL_AreMemoryParsInsideAvailableRange
                0x0000938c       0x84 ./DEV_MEMORY/IDTABLE/FLASH_IDTABLE.o
 .text.FSHTBL_IsMemoryRegionInsideAvailableRange
                0x00009410       0x48 ./DEV_MEMORY/IDTABLE/FLASH_IDTABLE.o
 .text.FSHTBL_IsMemoryRegionUnused
                0x00009458       0xe0 ./DEV_MEMORY/IDTABLE/FLASH_IDTABLE.o
 .text.FSHTBL_IsRecordIndexInsideRange
                0x00009538       0x60 ./DEV_MEMORY/IDTABLE/FLASH_IDTABLE.o
 .text.FSHTBL_IsIdAlreadyInit
                0x00009598       0x7c ./DEV_MEMORY/IDTABLE/FLASH_IDTABLE.o
 .text.FSHTBL_HasIdLengthChangedButFitsSpareMemory
                0x00009614       0x74 ./DEV_MEMORY/IDTABLE/FLASH_IDTABLE.o
 .text.FSHTBL_AdjustIdLengthAndSpareMemory
                0x00009688       0x70 ./DEV_MEMORY/IDTABLE/FLASH_IDTABLE.o
 .text.FSHTBL_GetTotalMemorySpace
                0x000096f8       0x1c ./DEV_MEMORY/IDTABLE/FLASH_IDTABLE.o
 .text.FSHTBL_SetIdAsBeingInit
                0x00009714       0x48 ./DEV_MEMORY/IDTABLE/FLASH_IDTABLE.o
 .text.FSHTBL_SetIdAsBeingNotInit
                0x0000975c       0x48 ./DEV_MEMORY/IDTABLE/FLASH_IDTABLE.o
 .text.FSHTBL_IsMainDataValid
                0x000097a4       0x3c ./DEV_MEMORY/IDTABLE/FLASH_IDTABLE.o
 .text.FSHTBL_IsBackupDataValid
                0x000097e0       0x3c ./DEV_MEMORY/IDTABLE/FLASH_IDTABLE.o
 .text.FSHTBL_IsMainCrcCorrect
                0x0000981c       0x58 ./DEV_MEMORY/IDTABLE/FLASH_IDTABLE.o
 .text.FSHTBL_IsBackupCrcCorrect
                0x00009874       0x58 ./DEV_MEMORY/IDTABLE/FLASH_IDTABLE.o
 .text.FSHTBL_IsMainSignatureCorrect
                0x000098cc       0x40 ./DEV_MEMORY/IDTABLE/FLASH_IDTABLE.o
 .text.FSHTBL_IsBackupSignatureCorrect
                0x0000990c       0x40 ./DEV_MEMORY/IDTABLE/FLASH_IDTABLE.o
 .text.FSHTBL_CopyBackupToMain
                0x0000994c       0x58 ./DEV_MEMORY/IDTABLE/FLASH_IDTABLE.o
 .text.FSHTBL_CopyMainToBackup
                0x000099a4       0x58 ./DEV_MEMORY/IDTABLE/FLASH_IDTABLE.o
 .text.FSHTBL_ClearMainTable
                0x000099fc       0x74 ./DEV_MEMORY/IDTABLE/FLASH_IDTABLE.o
 .text.FSHTBL_ClearBackupTable
                0x00009a70       0x74 ./DEV_MEMORY/IDTABLE/FLASH_IDTABLE.o
 .text.EXT_FLASH_IntHwInit
                0x00009ae4       0x38 ./DEV_MEMORY/FLASH.o
                0x00009ae4                EXT_FLASH_IntHwInit
 .text.EXT_FLASH_ExtHwConfig
                0x00009b1c      0x1d0 ./DEV_MEMORY/FLASH.o
                0x00009b1c                EXT_FLASH_ExtHwConfig
 .text.EXT_FLASH_Init
                0x00009cec       0x20 ./DEV_MEMORY/FLASH.o
                0x00009cec                EXT_FLASH_Init
 .text.EXT_FLASH_RecordRead
                0x00009d0c       0xa0 ./DEV_MEMORY/FLASH.o
                0x00009d0c                EXT_FLASH_RecordRead
 .text.EXT_FLASH_RecordWrite
                0x00009dac      0x15c ./DEV_MEMORY/FLASH.o
                0x00009dac                EXT_FLASH_RecordWrite
 .text.EXT_FLASH_RecordAppend
                0x00009f08      0x154 ./DEV_MEMORY/FLASH.o
                0x00009f08                EXT_FLASH_RecordAppend
 .text.EXT_FLASH_RecordGetCount
                0x0000a05c       0x3c ./DEV_MEMORY/FLASH.o
                0x0000a05c                EXT_FLASH_RecordGetCount
 .text.EXT_FLASH_RecordResetCount
                0x0000a098       0x70 ./DEV_MEMORY/FLASH.o
                0x0000a098                EXT_FLASH_RecordResetCount
 .text.EXT_FLASH_Read
                0x0000a108       0xa8 ./DEV_MEMORY/FLASH.o
                0x0000a108                EXT_FLASH_Read
 .text.EXT_FLASH_Write
                0x0000a1b0       0xa8 ./DEV_MEMORY/FLASH.o
                0x0000a1b0                EXT_FLASH_Write
 .text.EXT_FLASH_GetStatus
                0x0000a258       0x50 ./DEV_MEMORY/FLASH.o
                0x0000a258                EXT_FLASH_GetStatus
 .text.FSH_CheckIdRange
                0x0000a2a8       0x2c ./DEV_MEMORY/FLASH.o
 .text.FSH_CheckIdInit
                0x0000a2d4       0x34 ./DEV_MEMORY/FLASH.o
 .text.FSH_CheckIdRangeAndInit
                0x0000a308       0x34 ./DEV_MEMORY/FLASH.o
 .text.FSH_CheckPointer
                0x0000a33c       0x28 ./DEV_MEMORY/FLASH.o
 .text.FSH_CheckIdRangeAndPointer
                0x0000a364       0x34 ./DEV_MEMORY/FLASH.o
 .text.FSH_CheckIdInitAndPointer
                0x0000a398       0x38 ./DEV_MEMORY/FLASH.o
 .text.FSH_EvaluateRangeAndGetStartAddress
                0x0000a3d0       0x5c ./DEV_MEMORY/FLASH.o
 .text.FSH_IsStateMachineIdle
                0x0000a42c       0x2c ./DEV_MEMORY/FLASH.o
 .text.FSH_SetStateMachineIdle
                0x0000a458       0x18 ./DEV_MEMORY/FLASH.o
 .text.FSH_SetIdAsOperatingTheState
                0x0000a470       0x2c ./DEV_MEMORY/FLASH.o
 .text.FSH_IsIdOperatingThisState
                0x0000a49c       0x44 ./DEV_MEMORY/FLASH.o
 .text.FSH_RunLowerRoutine
                0x0000a4e0       0x68 ./DEV_MEMORY/FLASH.o
 .text.VUR_GetNextLogItem
                0x0000a548       0xb0 ./COMMON/VarUpdate/VUR.o
                0x0000a548                VUR_GetNextLogItem
 .text.VUR_GetNextVolatileItem
                0x0000a5f8       0x78 ./COMMON/VarUpdate/VUR.o
                0x0000a5f8                VUR_GetNextVolatileItem
 .text.VUR_GetLogCount
                0x0000a670       0x60 ./COMMON/VarUpdate/VUR.o
                0x0000a670                VUR_GetLogCount
 .text.__DEBUGHALT
                0x0000a6d0       0x30 ./COMMON/StdHeaders/StdDebug.o
                0x0000a6d0                __DEBUGHALT
 .text.Time_ToTimeStamp
                0x0000a700       0x78 ./COMMON/CustoMath/CustoMath.o
                0x0000a700                Time_ToTimeStamp
 .text.Time_FromTimeStamp
                0x0000a778       0x64 ./COMMON/CustoMath/CustoMath.o
                0x0000a778                Time_FromTimeStamp
 .text.ConvertBCDToByte
                0x0000a7dc       0x50 ./COMMON/CustoMath/CustoMath.o
                0x0000a7dc                ConvertBCDToByte
 .text.ConvertBCDToWord
                0x0000a82c       0x74 ./COMMON/CustoMath/CustoMath.o
                0x0000a82c                ConvertBCDToWord
 .text.CRC16    0x0000a8a0       0x94 ./COMMON/Checksum/checksum.o
                0x0000a8a0                CRC16
 .text.CRC8     0x0000a934       0x4c ./COMMON/Checksum/checksum.o
                0x0000a934                CRC8
 .text.exit     0x0000a980       0x28 c:/freescale/kds_3.0.0/toolchain/bin/../lib/gcc/arm-none-eabi/4.8.4/../../../../arm-none-eabi/lib/armv7e-m/fpu\libg_s.a(lib_a-exit.o)
                0x0000a980                exit
 .text.__libc_init_array
                0x0000a9a8       0x4c c:/freescale/kds_3.0.0/toolchain/bin/../lib/gcc/arm-none-eabi/4.8.4/../../../../arm-none-eabi/lib/armv7e-m/fpu\libg_s.a(lib_a-init.o)
                0x0000a9a8                __libc_init_array
 .text.localtime
                0x0000a9f4       0x24 c:/freescale/kds_3.0.0/toolchain/bin/../lib/gcc/arm-none-eabi/4.8.4/../../../../arm-none-eabi/lib/armv7e-m/fpu\libg_s.a(lib_a-lcltime.o)
                0x0000a9f4                localtime
 .text.localtime_r
                0x0000aa18        0x6 c:/freescale/kds_3.0.0/toolchain/bin/../lib/gcc/arm-none-eabi/4.8.4/../../../../arm-none-eabi/lib/armv7e-m/fpu\libg_s.a(lib_a-lcltime_r.o)
                0x0000aa18                localtime_r
 *fill*         0x0000aa1e        0x2 
 .text.malloc   0x0000aa20       0x10 c:/freescale/kds_3.0.0/toolchain/bin/../lib/gcc/arm-none-eabi/4.8.4/../../../../arm-none-eabi/lib/armv7e-m/fpu\libg_s.a(lib_a-malloc.o)
                0x0000aa20                malloc
 .text.free     0x0000aa30       0x10 c:/freescale/kds_3.0.0/toolchain/bin/../lib/gcc/arm-none-eabi/4.8.4/../../../../arm-none-eabi/lib/armv7e-m/fpu\libg_s.a(lib_a-malloc.o)
                0x0000aa30                free
 .text.memcpy   0x0000aa40       0x12 c:/freescale/kds_3.0.0/toolchain/bin/../lib/gcc/arm-none-eabi/4.8.4/../../../../arm-none-eabi/lib/armv7e-m/fpu\libg_s.a(lib_a-memcpy-stub.o)
                0x0000aa40                memcpy
 .text.memset   0x0000aa52       0x10 c:/freescale/kds_3.0.0/toolchain/bin/../lib/gcc/arm-none-eabi/4.8.4/../../../../arm-none-eabi/lib/armv7e-m/fpu\libg_s.a(lib_a-memset.o)
                0x0000aa52                memset
 *fill*         0x0000aa62        0x2 
 .text.validate_structure
                0x0000aa64      0x1a4 c:/freescale/kds_3.0.0/toolchain/bin/../lib/gcc/arm-none-eabi/4.8.4/../../../../arm-none-eabi/lib/armv7e-m/fpu\libg_s.a(lib_a-mktime.o)
 .text.mktime   0x0000ac08      0x2cc c:/freescale/kds_3.0.0/toolchain/bin/../lib/gcc/arm-none-eabi/4.8.4/../../../../arm-none-eabi/lib/armv7e-m/fpu\libg_s.a(lib_a-mktime.o)
                0x0000ac08                mktime
 .text.__tzcalc_limits
                0x0000aed4      0x15c c:/freescale/kds_3.0.0/toolchain/bin/../lib/gcc/arm-none-eabi/4.8.4/../../../../arm-none-eabi/lib/armv7e-m/fpu\libg_s.a(lib_a-mktm_r.o)
                0x0000aed4                __tzcalc_limits
 .text._mktm_r  0x0000b030      0x290 c:/freescale/kds_3.0.0/toolchain/bin/../lib/gcc/arm-none-eabi/4.8.4/../../../../arm-none-eabi/lib/armv7e-m/fpu\libg_s.a(lib_a-mktm_r.o)
                0x0000b030                _mktm_r
 .text._free_r  0x0000b2c0       0x88 c:/freescale/kds_3.0.0/toolchain/bin/../lib/gcc/arm-none-eabi/4.8.4/../../../../arm-none-eabi/lib/armv7e-m/fpu\libg_s.a(lib_a-nano-freer.o)
                0x0000b2c0                _free_r
 .text._malloc_r
                0x0000b348       0xa8 c:/freescale/kds_3.0.0/toolchain/bin/../lib/gcc/arm-none-eabi/4.8.4/../../../../arm-none-eabi/lib/armv7e-m/fpu\libg_s.a(lib_a-nano-mallocr.o)
                0x0000b348                _malloc_r
 .text._sbrk_r  0x0000b3f0       0x20 c:/freescale/kds_3.0.0/toolchain/bin/../lib/gcc/arm-none-eabi/4.8.4/../../../../arm-none-eabi/lib/armv7e-m/fpu\libg_s.a(lib_a-sbrkr.o)
                0x0000b3f0                _sbrk_r
 .text.__tz_lock
                0x0000b410        0x2 c:/freescale/kds_3.0.0/toolchain/bin/../lib/gcc/arm-none-eabi/4.8.4/../../../../arm-none-eabi/lib/armv7e-m/fpu\libg_s.a(lib_a-tzlock.o)
                0x0000b410                __tz_lock
 .text.__tz_unlock
                0x0000b412        0x2 c:/freescale/kds_3.0.0/toolchain/bin/../lib/gcc/arm-none-eabi/4.8.4/../../../../arm-none-eabi/lib/armv7e-m/fpu\libg_s.a(lib_a-tzlock.o)
                0x0000b412                __tz_unlock
 .text.div      0x0000b414       0x28 c:/freescale/kds_3.0.0/toolchain/bin/../lib/gcc/arm-none-eabi/4.8.4/../../../../arm-none-eabi/lib/armv7e-m/fpu\libg_s.a(lib_a-div.o)
                0x0000b414                div
 .text.__gettzinfo
                0x0000b43c        0x8 c:/freescale/kds_3.0.0/toolchain/bin/../lib/gcc/arm-none-eabi/4.8.4/../../../../arm-none-eabi/lib/armv7e-m/fpu\libg_s.a(lib_a-gettzinfo.o)
                0x0000b43c                __gettzinfo
 .text._sbrk    0x0000b444       0x34 c:/freescale/kds_3.0.0/toolchain/bin/../lib/gcc/arm-none-eabi/4.8.4/../../../../arm-none-eabi/lib/armv7e-m/fpu\libnosys.a(sbrk.o)
                0x0000b444                _sbrk
 .text._exit    0x0000b478        0x4 c:/freescale/kds_3.0.0/toolchain/bin/../lib/gcc/arm-none-eabi/4.8.4/../../../../arm-none-eabi/lib/armv7e-m/fpu\libnosys.a(_exit.o)
                0x0000b478                _exit
 *(.rodata)
 .rodata        0x0000b47c       0x14 ./SOURCE/MAPS/DATALOGGER_Map.o
 .rodata        0x0000b490       0x50 ./SOURCE/MAPS/STORAGE_MAP.o
 *(.rodata*)
 .rodata.DataloggerIDMaps
                0x0000b4e0      0x168 ./SOURCE/MAPS/DATALOGGER_Map.o
                0x0000b4e0                DataloggerIDMaps
 .rodata.PTR_MAP_SIZE
                0x0000b648        0x1 ./SOURCE/MAPS/DATALOGGER_Map.o
                0x0000b648                PTR_MAP_SIZE
 *fill*         0x0000b649        0x3 
 .rodata.STORAGE_MAP
                0x0000b64c       0x38 ./SOURCE/MAPS/STORAGE_MAP.o
                0x0000b64c                STORAGE_MAP
 .rodata.VarMapConfigTable
                0x0000b684        0x0 ./SOURCE/MAPS/VARMAP.o
                0x0000b684                VarMapConfigTable
 .rodata.VarMapConfigLen
                0x0000b684        0x2 ./SOURCE/MAPS/VARMAP.o
                0x0000b684                VarMapConfigLen
 *fill*         0x0000b686        0x2 
 .rodata.VarMapOutputTable
                0x0000b688        0x0 ./SOURCE/MAPS/VARMAP.o
                0x0000b688                VarMapOutputTable
 .rodata.VarMapOutputLen
                0x0000b688        0x2 ./SOURCE/MAPS/VARMAP.o
                0x0000b688                VarMapOutputLen
 *fill*         0x0000b68a        0x2 
 .rodata.TimeConvert
                0x0000b68c       0x28 ./LIB_DATALOGGER/DATALOGGER_Link.o
                0x0000b68c                TimeConvert
 .rodata.SpiGpio_BaseAddressArray
                0x0000b6b4       0x14 ./DRV_SPI/SPI.o
                0x0000b6b4                SpiGpio_BaseAddressArray
 .rodata.SpiPort_BaseAddressArray
                0x0000b6c8       0x14 ./DRV_SPI/SPI.o
                0x0000b6c8                SpiPort_BaseAddressArray
 .rodata.SpiScgc_PortMaskArray
                0x0000b6dc       0x14 ./DRV_SPI/SPI.o
                0x0000b6dc                SpiScgc_PortMaskArray
 .rodata.Spi_BasePtrArray
                0x0000b6f0        0xc ./DRV_SPI/SPI.o
                0x0000b6f0                Spi_BasePtrArray
 .rodata.SpiScgc_SpiMaskArray
                0x0000b6fc        0xc ./DRV_SPI/SPI.o
                0x0000b6fc                SpiScgc_SpiMaskArray
 .rodata.Spi_IRQnArray
                0x0000b708        0x4 ./DRV_SPI/SPI.o
                0x0000b708                Spi_IRQnArray
 .rodata.MuxConfig
                0x0000b70c       0x34 ./DRV_SPI/SPI.o
 .rodata.MuxSCConfig
                0x0000b740       0xe0 ./DRV_SPI/SPI.o
 .rodata.SpiBaudTable
                0x0000b820       0x24 ./DRV_SPI/SPI.o
 .rodata.MuxConfig
                0x0000b844       0xd8 ./DRV_IIC/IIC.o
 .rodata.PortInfo
                0x0000b91c       0x28 ./DRV_IIC/IIC.o
 .rodata.IIC_GpioBaseAddressArray
                0x0000b944       0x14 ./DRV_IIC/IIC.o
                0x0000b944                IIC_GpioBaseAddressArray
 .rodata.I2C_BaudRateCfg
                0x0000b958       0x14 ./DRV_IIC/IIC.o
 .rodata.crc8table
                0x0000b96c      0x100 ./COMMON/Checksum/checksum.o
                0x0000b96c                crc8table
 .rodata.str1.1
                0x0000ba6c        0x2 c:/freescale/kds_3.0.0/toolchain/bin/../lib/gcc/arm-none-eabi/4.8.4/../../../../arm-none-eabi/lib/armv7e-m/fpu\libg_s.a(lib_a-impure.o)
 *fill*         0x0000ba6e        0x2 
 .rodata._global_impure_ptr
                0x0000ba70        0x4 c:/freescale/kds_3.0.0/toolchain/bin/../lib/gcc/arm-none-eabi/4.8.4/../../../../arm-none-eabi/lib/armv7e-m/fpu\libg_s.a(lib_a-impure.o)
                0x0000ba70                _global_impure_ptr
 .rodata._DAYS_BEFORE_MONTH
                0x0000ba74       0x30 c:/freescale/kds_3.0.0/toolchain/bin/../lib/gcc/arm-none-eabi/4.8.4/../../../../arm-none-eabi/lib/armv7e-m/fpu\libg_s.a(lib_a-mktime.o)
 .rodata.DAYS_IN_MONTH
                0x0000baa4       0x30 c:/freescale/kds_3.0.0/toolchain/bin/../lib/gcc/arm-none-eabi/4.8.4/../../../../arm-none-eabi/lib/armv7e-m/fpu\libg_s.a(lib_a-mktime.o)
 .rodata.mon_lengths
                0x0000bad4       0x60 c:/freescale/kds_3.0.0/toolchain/bin/../lib/gcc/arm-none-eabi/4.8.4/../../../../arm-none-eabi/lib/armv7e-m/fpu\libg_s.a(lib_a-mktm_r.o)
 .rodata.year_lengths
                0x0000bb34        0x8 c:/freescale/kds_3.0.0/toolchain/bin/../lib/gcc/arm-none-eabi/4.8.4/../../../../arm-none-eabi/lib/armv7e-m/fpu\libg_s.a(lib_a-mktm_r.o)
 *(.glue_7)
 .glue_7        0x00000000        0x0 linker stubs
 *(.glue_7t)
 .glue_7t       0x00000000        0x0 linker stubs
 *(.eh_frame)
 .eh_frame      0x0000bb3c        0x0 c:/freescale/kds_3.0.0/toolchain/bin/../lib/gcc/arm-none-eabi/4.8.4/armv7e-m/fpu/crtbegin.o
 *(.init)
 .init          0x0000bb3c        0x4 c:/freescale/kds_3.0.0/toolchain/bin/../lib/gcc/arm-none-eabi/4.8.4/armv7e-m/fpu/crti.o
                0x0000bb3c                _init
 .init          0x0000bb40        0x8 c:/freescale/kds_3.0.0/toolchain/bin/../lib/gcc/arm-none-eabi/4.8.4/armv7e-m/fpu/crtn.o
 *(.fini)
 .fini          0x0000bb48        0x4 c:/freescale/kds_3.0.0/toolchain/bin/../lib/gcc/arm-none-eabi/4.8.4/armv7e-m/fpu/crti.o
                0x0000bb48                _fini
 .fini          0x0000bb4c        0x8 c:/freescale/kds_3.0.0/toolchain/bin/../lib/gcc/arm-none-eabi/4.8.4/armv7e-m/fpu/crtn.o
                0x0000bb54                . = ALIGN (0x4)

.vfp11_veneer   0x0000bb54        0x0
 .vfp11_veneer  0x00000000        0x0 linker stubs

.v4_bx          0x0000bb54        0x0
 .v4_bx         0x00000000        0x0 linker stubs

.iplt           0x0000bb54        0x0
 .iplt          0x00000000        0x0 c:/freescale/kds_3.0.0/toolchain/bin/../lib/gcc/arm-none-eabi/4.8.4/armv7e-m/fpu/crtbegin.o

.ARM.extab
 *(.ARM.extab* .gnu.linkonce.armextab.*)

.ARM            0x0000bb54        0x8
                0x0000bb54                __exidx_start = .
 *(.ARM.exidx*)
 .ARM.exidx     0x0000bb54        0x8 c:/freescale/kds_3.0.0/toolchain/bin/../lib/gcc/arm-none-eabi/4.8.4/../../../../arm-none-eabi/lib/armv7e-m/fpu/crt0.o
                0x0000bb5c                __exidx_end = .

.rel.dyn        0x0000bb5c        0x0
 .rel.iplt      0x00000000        0x0 c:/freescale/kds_3.0.0/toolchain/bin/../lib/gcc/arm-none-eabi/4.8.4/armv7e-m/fpu/crtbegin.o

.ctors          0x0000bb5c        0x0
                0x0000bb5c                __CTOR_LIST__ = .
 *crtbegin.o(.ctors)
 *crtbegin?.o(.ctors)
 *(EXCLUDE_FILE(*crtend.o *crtend?.o) .ctors)
 *(SORT(.ctors.*))
 *(.ctors)
                0x0000bb5c                __CTOR_END__ = .

.dtors          0x0000bb5c        0x0
                0x0000bb5c                __DTOR_LIST__ = .
 *crtbegin.o(.dtors)
 *crtbegin?.o(.dtors)
 *(EXCLUDE_FILE(*crtend.o *crtend?.o) .dtors)
 *(SORT(.dtors.*))
 *(.dtors)
                0x0000bb5c                __DTOR_END__ = .

.preinit_array  0x0000bb5c        0x0
                0x0000bb5c                PROVIDE (__preinit_array_start, .)
 *(.preinit_array*)
                0x0000bb5c                PROVIDE (__preinit_array_end, .)

.init_array     0x0000bb5c        0x4
                0x0000bb5c                PROVIDE (__init_array_start, .)
 *(SORT(.init_array.*))
 *(.init_array*)
 .init_array    0x0000bb5c        0x4 c:/freescale/kds_3.0.0/toolchain/bin/../lib/gcc/arm-none-eabi/4.8.4/armv7e-m/fpu/crtbegin.o
                0x0000bb60                PROVIDE (__init_array_end, .)

.fini_array     0x0000bb60        0x4
                0x0000bb60                PROVIDE (__fini_array_start, .)
 *(SORT(.fini_array.*))
 *(.fini_array*)
 .fini_array    0x0000bb60        0x4 c:/freescale/kds_3.0.0/toolchain/bin/../lib/gcc/arm-none-eabi/4.8.4/armv7e-m/fpu/crtbegin.o
                0x0000bb64                PROVIDE (__fini_array_end, .)
                0x0000bb64                __etext = .
                0x0000bb64                __DATA_ROM = .

.interrupts_ram
                0x1fff0000        0x0
                0x1fff0000                . = ALIGN (0x4)
                0x1fff0000                __VECTOR_RAM__ = .
                0x1fff0000                __interrupts_ram_start__ = .
 *(.m_interrupts_ram)
                0x1fff0000                . = (. + M_VECTOR_RAM_SIZE)
                0x1fff0000                . = ALIGN (0x4)
                0x1fff0000                __interrupts_ram_end__ = .
                0x00000000                __VECTOR_RAM = DEFINED (__ram_vector_table__)?__VECTOR_RAM__:ORIGIN (m_interrupts)
                0x00000000                __RAM_VECTOR_TABLE_SIZE_BYTES = DEFINED (__ram_vector_table__)?(__interrupts_ram_end__ - __interrupts_ram_start__):0x0

.data           0x1fff0000      0x420 load address 0x0000bb64
                0x1fff0000                . = ALIGN (0x4)
                0x1fff0000                __DATA_RAM = .
                0x1fff0000                __data_start__ = .
 *(.data)
 *(.data*)
 .data.TD_SetReadIndex
                0x1fff0000       0x10 ./SOURCE/MAPS/DATALOGGER_Map.o
                0x1fff0000                TD_SetReadIndex
 .data.TD_CurrentReadIndex
                0x1fff0010        0x4 ./SOURCE/MAPS/DATALOGGER_Map.o
                0x1fff0010                TD_CurrentReadIndex
 .data.DlogMap_TD_
                0x1fff0014       0x84 ./SOURCE/MAPS/DATALOGGER_Map.o
                0x1fff0014                DlogMap_TD_
 .data.BD_SetReadIndex
                0x1fff0098       0x10 ./SOURCE/MAPS/DATALOGGER_Map.o
                0x1fff0098                BD_SetReadIndex
 .data.BD_CurrentReadIndex
                0x1fff00a8        0x4 ./SOURCE/MAPS/DATALOGGER_Map.o
                0x1fff00a8                BD_CurrentReadIndex
 .data.DlogMap_BD_
                0x1fff00ac       0xc0 ./SOURCE/MAPS/DATALOGGER_Map.o
                0x1fff00ac                DlogMap_BD_
 .data.SD_SetReadIndex
                0x1fff016c       0x10 ./SOURCE/MAPS/DATALOGGER_Map.o
                0x1fff016c                SD_SetReadIndex
 .data.SD_CurrentReadIndex
                0x1fff017c        0x4 ./SOURCE/MAPS/DATALOGGER_Map.o
                0x1fff017c                SD_CurrentReadIndex
 .data.DlogMap_SD_
                0x1fff0180       0x9c ./SOURCE/MAPS/DATALOGGER_Map.o
                0x1fff0180                DlogMap_SD_
 .data.AD_SetReadIndex
                0x1fff021c       0x10 ./SOURCE/MAPS/DATALOGGER_Map.o
                0x1fff021c                AD_SetReadIndex
 .data.AD_CurrentReadIndex
                0x1fff022c        0x4 ./SOURCE/MAPS/DATALOGGER_Map.o
                0x1fff022c                AD_CurrentReadIndex
 .data.DlogMap_AD_
                0x1fff0230       0x3c ./SOURCE/MAPS/DATALOGGER_Map.o
                0x1fff0230                DlogMap_AD_
 .data.EVD_SetReadIndex
                0x1fff026c       0x10 ./SOURCE/MAPS/DATALOGGER_Map.o
                0x1fff026c                EVD_SetReadIndex
 .data.EVD_CurrentReadIndex
                0x1fff027c        0x4 ./SOURCE/MAPS/DATALOGGER_Map.o
                0x1fff027c                EVD_CurrentReadIndex
 .data.DlogMap_EVD_
                0x1fff0280       0x3c ./SOURCE/MAPS/DATALOGGER_Map.o
                0x1fff0280                DlogMap_EVD_
 .data.STORAGE_Get
                0x1fff02bc        0x8 ./LIB_STORAGE/STORAGE_Link.o
                0x1fff02bc                STORAGE_Get
 .data.IsFirstTime.8550
                0x1fff02c4        0x8 ./LIB_DATALOGGER/DATALOGGER_Ctrl.o
 .data.isFirstTimeHere.8565
                0x1fff02cc        0x1 ./LIB_DATALOGGER/DATALOGGER_Ctrl.o
 *fill*         0x1fff02cd        0x3 
 .data.MemoryAppID
                0x1fff02d0        0x4 ./LIB_DATALOGGER/DATALOGGER_Link.o
                0x1fff02d0                MemoryAppID
 .data.DATALOGGER_Get
                0x1fff02d4       0x14 ./LIB_DATALOGGER/DATALOGGER_Link.o
                0x1fff02d4                DATALOGGER_Get
 .data.LastReadIndex
                0x1fff02e8       0x14 ./LIB_DATALOGGER/DATALOGGER_Link.o
 .data.enable_check.6652
                0x1fff02fc        0x8 ./LIB_DATALOGGER/DATALOGGER_Link.o
 .data.SPI_PreviousID
                0x1fff0304        0x4 ./DRV_SPI/SPI.o
 .data.SPI_CurrCSRouted
                0x1fff0308        0x4 ./DRV_SPI/SPI.o
 .data.IIC_PreviousID
                0x1fff030c        0x8 ./DRV_IIC/IIC.o
 .data.array_InitCalendar
                0x1fff0314       0x1c ./DEV_RTC/RTC.o
                0x1fff0314                array_InitCalendar
 .data.array_GetCalendar
                0x1fff0330       0x10 ./DEV_RTC/RTC.o
                0x1fff0330                array_GetCalendar
 .data.array_SetCalendar
                0x1fff0340       0x28 ./DEV_RTC/RTC.o
                0x1fff0340                array_SetCalendar
 .data.isFirstTimeHere.4539
                0x1fff0368        0x1 ./DEV_MEMORY/LOWER/MANAGER/INTERFACE/FLASH_LOWER_MNG_INTF.o
 .data.isFirstTimeHere.4555
                0x1fff0369        0x1 ./DEV_MEMORY/LOWER/MANAGER/INTERFACE/FLASH_LOWER_MNG_INTF.o
 .data.isFirstTimeHere.4600
                0x1fff036a        0x1 ./DEV_MEMORY/LOWER/MANAGER/FLASH_LOWER_MNG.o
 .data.isFirstTimeHere.4691
                0x1fff036b        0x1 ./DEV_MEMORY/LOWER/MANAGER/FLASH_LOWER_MNG.o
 .data.isFirstTimeHere.4654
                0x1fff036c        0x1 ./DEV_MEMORY/LOWER/FLASH_LOWER.o
 .data.isFirstTimeHere.4699
                0x1fff036d        0x1 ./DEV_MEMORY/LOWER/FLASH_LOWER.o
 .data.isFirstTimeHere.4723
                0x1fff036e        0x1 ./DEV_MEMORY/LOWER/FLASH_LOWER.o
 .data.isFirstTimeHere.4756
                0x1fff036f        0x1 ./DEV_MEMORY/LOWER/FLASH_LOWER.o
 .data.isFirstTimeHere.4635
                0x1fff0370        0x1 ./DEV_MEMORY/IDTABLE/FLASH_IDTABLE.o
 .data.isFirstTimeHere.4649
                0x1fff0371        0x1 ./DEV_MEMORY/IDTABLE/FLASH_IDTABLE.o
 .data.isFirstTimeHere.4682
                0x1fff0372        0x1 ./DEV_MEMORY/IDTABLE/FLASH_IDTABLE.o
 .data.isFirstTimeHere.4632
                0x1fff0373        0x1 ./DEV_MEMORY/FLASH.o
 .data.isFirstTimeHere.4658
                0x1fff0374        0x1 ./DEV_MEMORY/FLASH.o
 .data.isFirstTimeHere.4673
                0x1fff0375        0x1 ./DEV_MEMORY/FLASH.o
 *fill*         0x1fff0376        0x2 
 .data.impure_data
                0x1fff0378       0x60 c:/freescale/kds_3.0.0/toolchain/bin/../lib/gcc/arm-none-eabi/4.8.4/../../../../arm-none-eabi/lib/armv7e-m/fpu\libg_s.a(lib_a-impure.o)
 .data._impure_ptr
                0x1fff03d8        0x4 c:/freescale/kds_3.0.0/toolchain/bin/../lib/gcc/arm-none-eabi/4.8.4/../../../../arm-none-eabi/lib/armv7e-m/fpu\libg_s.a(lib_a-impure.o)
                0x1fff03d8                _impure_ptr
 .data.tzinfo   0x1fff03dc       0x40 c:/freescale/kds_3.0.0/toolchain/bin/../lib/gcc/arm-none-eabi/4.8.4/../../../../arm-none-eabi/lib/armv7e-m/fpu\libg_s.a(lib_a-gettzinfo.o)
 *(.jcr*)
 .jcr           0x1fff041c        0x0 c:/freescale/kds_3.0.0/toolchain/bin/../lib/gcc/arm-none-eabi/4.8.4/armv7e-m/fpu/crtbegin.o
 .jcr           0x1fff041c        0x4 c:/freescale/kds_3.0.0/toolchain/bin/../lib/gcc/arm-none-eabi/4.8.4/armv7e-m/fpu/crtend.o
                0x1fff0420                . = ALIGN (0x4)
                0x1fff0420                __data_end__ = .
                0x0000bf84                __DATA_END = (__DATA_ROM + (__data_end__ - __data_start__))

.igot.plt       0x1fff0420        0x0 load address 0x0000bf84
 .igot.plt      0x00000000        0x0 c:/freescale/kds_3.0.0/toolchain/bin/../lib/gcc/arm-none-eabi/4.8.4/armv7e-m/fpu/crtbegin.o

.bss            0x1fff0420     0x4ac0 load address 0x0000bf84
                0x1fff0420                . = ALIGN (0x4)
                0x1fff0420                __START_BSS = .
                0x1fff0420                __bss_start__ = .
 *(.bss)
 .bss           0x1fff0420       0x1c c:/freescale/kds_3.0.0/toolchain/bin/../lib/gcc/arm-none-eabi/4.8.4/armv7e-m/fpu/crtbegin.o
 *(.bss*)
 .bss.TD_TransactionID
                0x1fff043c        0x4 ./SOURCE/MAPS/DATALOGGER_Map.o
                0x1fff043c                TD_TransactionID
 .bss.TD_UserID
                0x1fff0440        0x4 ./SOURCE/MAPS/DATALOGGER_Map.o
                0x1fff0440                TD_UserID
 .bss.TD_TransStartDate
                0x1fff0444        0x4 ./SOURCE/MAPS/DATALOGGER_Map.o
                0x1fff0444                TD_TransStartDate
 .bss.TD_TransStartTime
                0x1fff0448        0x4 ./SOURCE/MAPS/DATALOGGER_Map.o
                0x1fff0448                TD_TransStartTime
 .bss.TD_TransStopDate
                0x1fff044c        0x4 ./SOURCE/MAPS/DATALOGGER_Map.o
                0x1fff044c                TD_TransStopDate
 .bss.TD_TransStopTime
                0x1fff0450        0x4 ./SOURCE/MAPS/DATALOGGER_Map.o
                0x1fff0450                TD_TransStopTime
 .bss.TD_WMIntended
                0x1fff0454        0x4 ./SOURCE/MAPS/DATALOGGER_Map.o
                0x1fff0454                TD_WMIntended
 .bss.TD_BaseTemperature
                0x1fff0458        0x4 ./SOURCE/MAPS/DATALOGGER_Map.o
                0x1fff0458                TD_BaseTemperature
 .bss.TD_PresetType
                0x1fff045c        0x4 ./SOURCE/MAPS/DATALOGGER_Map.o
                0x1fff045c                TD_PresetType
 .bss.TD_StartAddrBatch
                0x1fff0460        0x4 ./SOURCE/MAPS/DATALOGGER_Map.o
                0x1fff0460                TD_StartAddrBatch
 .bss.TD_EndAddrBatch
                0x1fff0464        0x4 ./SOURCE/MAPS/DATALOGGER_Map.o
                0x1fff0464                TD_EndAddrBatch
 .bss.TD_CurrentIndex
                0x1fff0468        0x4 ./SOURCE/MAPS/DATALOGGER_Map.o
                0x1fff0468                TD_CurrentIndex
 .bss.TD_ReadStatus
                0x1fff046c        0x4 ./SOURCE/MAPS/DATALOGGER_Map.o
                0x1fff046c                TD_ReadStatus
 .bss.BD_BatchID
                0x1fff0470        0x4 ./SOURCE/MAPS/DATALOGGER_Map.o
                0x1fff0470                BD_BatchID
 .bss.BD_ArmNumber
                0x1fff0474        0x4 ./SOURCE/MAPS/DATALOGGER_Map.o
                0x1fff0474                BD_ArmNumber
 .bss.BD_ProductName
                0x1fff0478        0x4 ./SOURCE/MAPS/DATALOGGER_Map.o
                0x1fff0478                BD_ProductName
 .bss.BD_BatchStartDate
                0x1fff047c        0x4 ./SOURCE/MAPS/DATALOGGER_Map.o
                0x1fff047c                BD_BatchStartDate
 .bss.BD_BatchStartTime
                0x1fff0480        0x4 ./SOURCE/MAPS/DATALOGGER_Map.o
                0x1fff0480                BD_BatchStartTime
 .bss.BD_BatchStopDate
                0x1fff0484        0x4 ./SOURCE/MAPS/DATALOGGER_Map.o
                0x1fff0484                BD_BatchStopDate
 .bss.BD_BatchStopTime
                0x1fff0488        0x4 ./SOURCE/MAPS/DATALOGGER_Map.o
                0x1fff0488                BD_BatchStopTime
 .bss.BD_WMCompilant
                0x1fff048c        0x4 ./SOURCE/MAPS/DATALOGGER_Map.o
                0x1fff048c                BD_WMCompilant
 .bss.BD_PresetVolume
                0x1fff0490        0x4 ./SOURCE/MAPS/DATALOGGER_Map.o
                0x1fff0490                BD_PresetVolume
 .bss.BD_ReturnedQuantity
                0x1fff0494        0x4 ./SOURCE/MAPS/DATALOGGER_Map.o
                0x1fff0494                BD_ReturnedQuantity
 .bss.BD_BatchGOV
                0x1fff0498        0x4 ./SOURCE/MAPS/DATALOGGER_Map.o
                0x1fff0498                BD_BatchGOV
 .bss.BD_BatchGSV
                0x1fff049c        0x4 ./SOURCE/MAPS/DATALOGGER_Map.o
                0x1fff049c                BD_BatchGSV
 .bss.BD_BatchMass
                0x1fff04a0        0x4 ./SOURCE/MAPS/DATALOGGER_Map.o
                0x1fff04a0                BD_BatchMass
 .bss.BD_BlendType
                0x1fff04a4        0x4 ./SOURCE/MAPS/DATALOGGER_Map.o
                0x1fff04a4                BD_BlendType
 .bss.BD_StartAddrStream
                0x1fff04a8        0x4 ./SOURCE/MAPS/DATALOGGER_Map.o
                0x1fff04a8                BD_StartAddrStream
 .bss.BD_EndAddrStream
                0x1fff04ac        0x4 ./SOURCE/MAPS/DATALOGGER_Map.o
                0x1fff04ac                BD_EndAddrStream
 .bss.BD_CurrentIndex
                0x1fff04b0        0x4 ./SOURCE/MAPS/DATALOGGER_Map.o
                0x1fff04b0                BD_CurrentIndex
 .bss.BD_ReadStatus
                0x1fff04b4        0x4 ./SOURCE/MAPS/DATALOGGER_Map.o
                0x1fff04b4                BD_ReadStatus
 .bss.SD_StreamID
                0x1fff04b8        0x4 ./SOURCE/MAPS/DATALOGGER_Map.o
                0x1fff04b8                SD_StreamID
 .bss.SD_ProductName
                0x1fff04bc        0x4 ./SOURCE/MAPS/DATALOGGER_Map.o
                0x1fff04bc                SD_ProductName
 .bss.SD_AccumStartGOV
                0x1fff04c0        0x4 ./SOURCE/MAPS/DATALOGGER_Map.o
                0x1fff04c0                SD_AccumStartGOV
 .bss.SD_AccumStopGOV
                0x1fff04c4        0x4 ./SOURCE/MAPS/DATALOGGER_Map.o
                0x1fff04c4                SD_AccumStopGOV
 .bss.SD_AccumStartGSV
                0x1fff04c8        0x4 ./SOURCE/MAPS/DATALOGGER_Map.o
                0x1fff04c8                SD_AccumStartGSV
 .bss.SD_AccumStopGSV
                0x1fff04cc        0x4 ./SOURCE/MAPS/DATALOGGER_Map.o
                0x1fff04cc                SD_AccumStopGSV
 .bss.SD_AccumStartMass
                0x1fff04d0        0x4 ./SOURCE/MAPS/DATALOGGER_Map.o
                0x1fff04d0                SD_AccumStartMass
 .bss.SD_AccumStopMass
                0x1fff04d4        0x4 ./SOURCE/MAPS/DATALOGGER_Map.o
                0x1fff04d4                SD_AccumStopMass
 .bss.SD_StreamGOV
                0x1fff04d8        0x4 ./SOURCE/MAPS/DATALOGGER_Map.o
                0x1fff04d8                SD_StreamGOV
 .bss.SD_StreamGSV
                0x1fff04dc        0x4 ./SOURCE/MAPS/DATALOGGER_Map.o
                0x1fff04dc                SD_StreamGSV
 .bss.SD_StreamMass
                0x1fff04e0        0x4 ./SOURCE/MAPS/DATALOGGER_Map.o
                0x1fff04e0                SD_StreamMass
 .bss.SD_AverageDensity
                0x1fff04e4        0x4 ./SOURCE/MAPS/DATALOGGER_Map.o
                0x1fff04e4                SD_AverageDensity
 .bss.SD_TempCompensation
                0x1fff04e8        0x4 ./SOURCE/MAPS/DATALOGGER_Map.o
                0x1fff04e8                SD_TempCompensation
 .bss.SD_CurrentIndex
                0x1fff04ec        0x4 ./SOURCE/MAPS/DATALOGGER_Map.o
                0x1fff04ec                SD_CurrentIndex
 .bss.SD_ReadStatus
                0x1fff04f0        0x4 ./SOURCE/MAPS/DATALOGGER_Map.o
                0x1fff04f0                SD_ReadStatus
 .bss.AD_AlarmLogRegion1
                0x1fff04f4        0x4 ./SOURCE/MAPS/DATALOGGER_Map.o
                0x1fff04f4                AD_AlarmLogRegion1
 .bss.AD_AlarmLogRegion2
                0x1fff04f8        0x4 ./SOURCE/MAPS/DATALOGGER_Map.o
                0x1fff04f8                AD_AlarmLogRegion2
 .bss.AD_AlarmLogRegion3
                0x1fff04fc        0x4 ./SOURCE/MAPS/DATALOGGER_Map.o
                0x1fff04fc                AD_AlarmLogRegion3
 .bss.AD_AlarmLogRegion4
                0x1fff0500        0x4 ./SOURCE/MAPS/DATALOGGER_Map.o
                0x1fff0500                AD_AlarmLogRegion4
 .bss.AD_AlarmLogRegion5
                0x1fff0504        0x4 ./SOURCE/MAPS/DATALOGGER_Map.o
                0x1fff0504                AD_AlarmLogRegion5
 .bss.AD_CurrentIndex
                0x1fff0508        0x4 ./SOURCE/MAPS/DATALOGGER_Map.o
                0x1fff0508                AD_CurrentIndex
 .bss.AD_ReadStatus
                0x1fff050c        0x4 ./SOURCE/MAPS/DATALOGGER_Map.o
                0x1fff050c                AD_ReadStatus
 .bss.EVD_EventType
                0x1fff0510        0x4 ./SOURCE/MAPS/DATALOGGER_Map.o
                0x1fff0510                EVD_EventType
 .bss.EVD_EventDate
                0x1fff0514        0x4 ./SOURCE/MAPS/DATALOGGER_Map.o
                0x1fff0514                EVD_EventDate
 .bss.EVD_EventTime
                0x1fff0518        0x4 ./SOURCE/MAPS/DATALOGGER_Map.o
                0x1fff0518                EVD_EventTime
 .bss.EVD_GenericArea1
                0x1fff051c        0x4 ./SOURCE/MAPS/DATALOGGER_Map.o
                0x1fff051c                EVD_GenericArea1
 .bss.EVD_GenericArea2
                0x1fff0520        0x4 ./SOURCE/MAPS/DATALOGGER_Map.o
                0x1fff0520                EVD_GenericArea2
 .bss.EVD_CurrentIndex
                0x1fff0524        0x4 ./SOURCE/MAPS/DATALOGGER_Map.o
                0x1fff0524                EVD_CurrentIndex
 .bss.EVD_ReadStatus
                0x1fff0528        0x4 ./SOURCE/MAPS/DATALOGGER_Map.o
                0x1fff0528                EVD_ReadStatus
 .bss.TransactionID
                0x1fff052c        0x4 ./SOURCE/APP/APP.o
                0x1fff052c                TransactionID
 .bss.UserID    0x1fff0530        0x4 ./SOURCE/APP/APP.o
                0x1fff0530                UserID
 .bss.TransStartDate
                0x1fff0534        0x4 ./SOURCE/APP/APP.o
                0x1fff0534                TransStartDate
 .bss.TransStartTime
                0x1fff0538        0x4 ./SOURCE/APP/APP.o
                0x1fff0538                TransStartTime
 .bss.TransStopDate
                0x1fff053c        0x4 ./SOURCE/APP/APP.o
                0x1fff053c                TransStopDate
 .bss.TransStopTime
                0x1fff0540        0x4 ./SOURCE/APP/APP.o
                0x1fff0540                TransStopTime
 .bss.WMIntended
                0x1fff0544        0x4 ./SOURCE/APP/APP.o
                0x1fff0544                WMIntended
 .bss.BaseTemperature
                0x1fff0548        0x4 ./SOURCE/APP/APP.o
                0x1fff0548                BaseTemperature
 .bss.PresetType
                0x1fff054c        0x4 ./SOURCE/APP/APP.o
                0x1fff054c                PresetType
 .bss.StartAddrBatch
                0x1fff0550        0x4 ./SOURCE/APP/APP.o
                0x1fff0550                StartAddrBatch
 .bss.EndAddrBatch
                0x1fff0554        0x4 ./SOURCE/APP/APP.o
                0x1fff0554                EndAddrBatch
 .bss.BatchID   0x1fff0558        0x4 ./SOURCE/APP/APP.o
                0x1fff0558                BatchID
 .bss.ArmNumber
                0x1fff055c        0x4 ./SOURCE/APP/APP.o
                0x1fff055c                ArmNumber
 .bss.ProductName
                0x1fff0560        0x4 ./SOURCE/APP/APP.o
                0x1fff0560                ProductName
 .bss.BatchStartDate
                0x1fff0564        0x4 ./SOURCE/APP/APP.o
                0x1fff0564                BatchStartDate
 .bss.BatchStartTime
                0x1fff0568        0x4 ./SOURCE/APP/APP.o
                0x1fff0568                BatchStartTime
 .bss.BatchStopDate
                0x1fff056c        0x4 ./SOURCE/APP/APP.o
                0x1fff056c                BatchStopDate
 .bss.BatchStopTime
                0x1fff0570        0x4 ./SOURCE/APP/APP.o
                0x1fff0570                BatchStopTime
 .bss.WMCompilant
                0x1fff0574        0x4 ./SOURCE/APP/APP.o
                0x1fff0574                WMCompilant
 .bss.PresetVolume
                0x1fff0578        0x4 ./SOURCE/APP/APP.o
                0x1fff0578                PresetVolume
 .bss.ReturnedQuantity
                0x1fff057c        0x4 ./SOURCE/APP/APP.o
                0x1fff057c                ReturnedQuantity
 .bss.BatchGOV  0x1fff0580        0x4 ./SOURCE/APP/APP.o
                0x1fff0580                BatchGOV
 .bss.BatchGSV  0x1fff0584        0x4 ./SOURCE/APP/APP.o
                0x1fff0584                BatchGSV
 .bss.BatchMass
                0x1fff0588        0x4 ./SOURCE/APP/APP.o
                0x1fff0588                BatchMass
 .bss.BlendType
                0x1fff058c        0x4 ./SOURCE/APP/APP.o
                0x1fff058c                BlendType
 .bss.StartAddrStream
                0x1fff0590        0x4 ./SOURCE/APP/APP.o
                0x1fff0590                StartAddrStream
 .bss.EndAddrStream
                0x1fff0594        0x4 ./SOURCE/APP/APP.o
                0x1fff0594                EndAddrStream
 .bss.StreamID  0x1fff0598        0x4 ./SOURCE/APP/APP.o
                0x1fff0598                StreamID
 .bss.AccumStartGOV
                0x1fff059c        0x4 ./SOURCE/APP/APP.o
                0x1fff059c                AccumStartGOV
 .bss.AccumStopGOV
                0x1fff05a0        0x4 ./SOURCE/APP/APP.o
                0x1fff05a0                AccumStopGOV
 .bss.AccumStartGSV
                0x1fff05a4        0x4 ./SOURCE/APP/APP.o
                0x1fff05a4                AccumStartGSV
 .bss.AccumStopGSV
                0x1fff05a8        0x4 ./SOURCE/APP/APP.o
                0x1fff05a8                AccumStopGSV
 .bss.AccumStartMass
                0x1fff05ac        0x4 ./SOURCE/APP/APP.o
                0x1fff05ac                AccumStartMass
 .bss.AccumStopMass
                0x1fff05b0        0x4 ./SOURCE/APP/APP.o
                0x1fff05b0                AccumStopMass
 .bss.StreamGOV
                0x1fff05b4        0x4 ./SOURCE/APP/APP.o
                0x1fff05b4                StreamGOV
 .bss.StreamGSV
                0x1fff05b8        0x4 ./SOURCE/APP/APP.o
                0x1fff05b8                StreamGSV
 .bss.StreamMass
                0x1fff05bc        0x4 ./SOURCE/APP/APP.o
                0x1fff05bc                StreamMass
 .bss.AverageDensity
                0x1fff05c0        0x4 ./SOURCE/APP/APP.o
                0x1fff05c0                AverageDensity
 .bss.TempCompensation
                0x1fff05c4        0x4 ./SOURCE/APP/APP.o
                0x1fff05c4                TempCompensation
 .bss.AlarmLogRegion1
                0x1fff05c8        0x4 ./SOURCE/APP/APP.o
                0x1fff05c8                AlarmLogRegion1
 .bss.AlarmLogRegion2
                0x1fff05cc        0x4 ./SOURCE/APP/APP.o
                0x1fff05cc                AlarmLogRegion2
 .bss.AlarmLogRegion3
                0x1fff05d0        0x4 ./SOURCE/APP/APP.o
                0x1fff05d0                AlarmLogRegion3
 .bss.AlarmLogRegion4
                0x1fff05d4        0x4 ./SOURCE/APP/APP.o
                0x1fff05d4                AlarmLogRegion4
 .bss.AlarmLogRegion5
                0x1fff05d8        0x4 ./SOURCE/APP/APP.o
                0x1fff05d8                AlarmLogRegion5
 .bss.EventType
                0x1fff05dc        0x4 ./SOURCE/APP/APP.o
                0x1fff05dc                EventType
 .bss.EventDate
                0x1fff05e0        0x4 ./SOURCE/APP/APP.o
                0x1fff05e0                EventDate
 .bss.EventTime
                0x1fff05e4        0x4 ./SOURCE/APP/APP.o
                0x1fff05e4                EventTime
 .bss.GenericArea1
                0x1fff05e8        0x4 ./SOURCE/APP/APP.o
                0x1fff05e8                GenericArea1
 .bss.GenericArea2
                0x1fff05ec        0x4 ./SOURCE/APP/APP.o
                0x1fff05ec                GenericArea2
 .bss.LogTriggerTD
                0x1fff05f0        0x4 ./SOURCE/APP/APP.o
                0x1fff05f0                LogTriggerTD
 .bss.LogTriggerSD
                0x1fff05f4        0x4 ./SOURCE/APP/APP.o
                0x1fff05f4                LogTriggerSD
 .bss.LogTriggerBD
                0x1fff05f8        0x4 ./SOURCE/APP/APP.o
                0x1fff05f8                LogTriggerBD
 .bss.LogTriggerAD
                0x1fff05fc        0x4 ./SOURCE/APP/APP.o
                0x1fff05fc                LogTriggerAD
 .bss.LogTriggerEVD
                0x1fff0600        0x4 ./SOURCE/APP/APP.o
                0x1fff0600                LogTriggerEVD
 .bss.InitHard.4913
                0x1fff0604        0x1 ./LIB_STORAGE/STORAGE_Ctrl.o
 .bss.i.4915    0x1fff0605        0x1 ./LIB_STORAGE/STORAGE_Ctrl.o
 .bss.j.4916    0x1fff0606        0x1 ./LIB_STORAGE/STORAGE_Ctrl.o
 *fill*         0x1fff0607        0x1 
 .bss.RetAcc.4914
                0x1fff0608        0x2 ./LIB_STORAGE/STORAGE_Ctrl.o
 .bss.SaveMachine.4930
                0x1fff060a        0x1 ./LIB_STORAGE/STORAGE_Ctrl.o
 .bss.BankID.4937
                0x1fff060b        0x1 ./LIB_STORAGE/STORAGE_Ctrl.o
 .bss.SizeMapBytes.4936
                0x1fff060c        0x2 ./LIB_STORAGE/STORAGE_Ctrl.o
 *fill*         0x1fff060e        0x2 
 .bss.MallocBuf.4938
                0x1fff0610        0x4 ./LIB_STORAGE/STORAGE_Ctrl.o
 .bss.BankInfoW.4931
                0x1fff0614        0xc ./LIB_STORAGE/STORAGE_Ctrl.o
 .bss.InitialAddr.4933
                0x1fff0620        0x4 ./LIB_STORAGE/STORAGE_Ctrl.o
 .bss.DataCountWritten.4934
                0x1fff0624        0x4 ./LIB_STORAGE/STORAGE_Ctrl.o
 .bss.DataCountRemain.4935
                0x1fff0628        0x4 ./LIB_STORAGE/STORAGE_Ctrl.o
 .bss.WriteDataSize.4932
                0x1fff062c        0x4 ./LIB_STORAGE/STORAGE_Ctrl.o
 .bss.RestoreMachine.4965
                0x1fff0630        0x1 ./LIB_STORAGE/STORAGE_Ctrl.o
 *fill*         0x1fff0631        0x1 
 .bss.SizeMapBytes.4971
                0x1fff0632        0x2 ./LIB_STORAGE/STORAGE_Ctrl.o
 .bss.MallocBuf.4973
                0x1fff0634        0x4 ./LIB_STORAGE/STORAGE_Ctrl.o
 .bss.BankID.4972
                0x1fff0638        0x1 ./LIB_STORAGE/STORAGE_Ctrl.o
 *fill*         0x1fff0639        0x3 
 .bss.BankInfoR.4966
                0x1fff063c        0xc ./LIB_STORAGE/STORAGE_Ctrl.o
 .bss.InitialAddr.4968
                0x1fff0648        0x4 ./LIB_STORAGE/STORAGE_Ctrl.o
 .bss.DataCountRead.4969
                0x1fff064c        0x4 ./LIB_STORAGE/STORAGE_Ctrl.o
 .bss.DataCountRemain.4970
                0x1fff0650        0x4 ./LIB_STORAGE/STORAGE_Ctrl.o
 .bss.ReadDataSize.4967
                0x1fff0654        0x4 ./LIB_STORAGE/STORAGE_Ctrl.o
 .bss.DestroyMachine.5000
                0x1fff0658        0x1 ./LIB_STORAGE/STORAGE_Ctrl.o
 *fill*         0x1fff0659        0x3 
 .bss.BankInfo.5001
                0x1fff065c        0xc ./LIB_STORAGE/STORAGE_Ctrl.o
 .bss.STORAGE_Set
                0x1fff0668        0x8 ./LIB_STORAGE/STORAGE_Link.o
                0x1fff0668                STORAGE_Set
 .bss.MapInfo   0x1fff0670       0x14 ./LIB_STORAGE/STORAGE_Link.o
 .bss.StorageMachine
                0x1fff0684        0x1 ./LIB_STORAGE/STORAGE_Link.o
 *fill*         0x1fff0685        0x3 
 .bss.SavedPtrMap
                0x1fff0688        0x4 ./LIB_STORAGE/STORAGE_Link.o
 .bss.MapPosition
                0x1fff068c        0x4 ./LIB_STORAGE/STORAGE_Link.o
 .bss.VurRequestCount
                0x1fff0690        0x4 ./LIB_STORAGE/STORAGE_Link.o
 .bss.App_MEMParameters.8551
                0x1fff0694       0x64 ./LIB_DATALOGGER/DATALOGGER_Ctrl.o
 .bss.DlogRead.8570
                0x1fff06f8        0x1 ./LIB_DATALOGGER/DATALOGGER_Ctrl.o
 .bss.DlogWrite.8590
                0x1fff06f9        0x1 ./LIB_DATALOGGER/DATALOGGER_Ctrl.o
 *fill*         0x1fff06fa        0x2 
 .bss.INT_VariableAddress
                0x1fff06fc        0x4 ./LIB_DATALOGGER/DATALOGGER_Link.o
                0x1fff06fc                INT_VariableAddress
 .bss.INT_VariableNewValue
                0x1fff0700        0x4 ./LIB_DATALOGGER/DATALOGGER_Link.o
                0x1fff0700                INT_VariableNewValue
 .bss.INT_VariableOldValue
                0x1fff0704        0x4 ./LIB_DATALOGGER/DATALOGGER_Link.o
                0x1fff0704                INT_VariableOldValue
 .bss.MemoryState
                0x1fff0708        0x4 ./LIB_DATALOGGER/DATALOGGER_Link.o
                0x1fff0708                MemoryState
 .bss.MemorySpaceAvailable
                0x1fff070c        0x4 ./LIB_DATALOGGER/DATALOGGER_Link.o
                0x1fff070c                MemorySpaceAvailable
 .bss.MemoryTotalSpace
                0x1fff0710        0x4 ./LIB_DATALOGGER/DATALOGGER_Link.o
                0x1fff0710                MemoryTotalSpace
 .bss.DATALOGGER_Set
                0x1fff0714       0x14 ./LIB_DATALOGGER/DATALOGGER_Link.o
                0x1fff0714                DATALOGGER_Set
 .bss.DLOG_Machine.6613
                0x1fff0728        0x8 ./LIB_DATALOGGER/DATALOGGER_Link.o
 .bss.LastSeconds.6655
                0x1fff0730        0x4 ./LIB_DATALOGGER/DATALOGGER_Link.o
 .bss.SPI_InterruptIsBusy
                0x1fff0734        0x4 ./DRV_SPI/SPI.o
                0x1fff0734                SPI_InterruptIsBusy
 .bss.SPI_IsBusy
                0x1fff0738        0x4 ./DRV_SPI/SPI.o
 .bss.isIdStarted
                0x1fff073c        0x4 ./DRV_SPI/SPI.o
 .bss.SPI_DeviceList
                0x1fff0740       0x1c ./DRV_SPI/SPI.o
 .bss.SPI_Interface
                0x1fff075c        0x4 ./DRV_SPI/SPI.o
 .bss.SendStep  0x1fff0760        0x4 ./DRV_SPI/SPI.o
 .bss.ReadStep  0x1fff0764        0x4 ./DRV_SPI/SPI.o
 .bss.SPI_CSpin_Initialized.6427
                0x1fff0768       0x1c ./DRV_SPI/SPI.o
 .bss.SPI_Interface_Initialized.6426
                0x1fff0784        0x4 ./DRV_SPI/SPI.o
 .bss.isPeripheralConfigured
                0x1fff0788        0x1 ./DRV_PIT/PIT.o
                0x1fff0788                isPeripheralConfigured
 .bss.isPeripheralEnabled
                0x1fff0789        0x1 ./DRV_PIT/PIT.o
                0x1fff0789                isPeripheralEnabled
 *fill*         0x1fff078a        0x2 
 .bss.IIC_CurrMode
                0x1fff078c        0x4 ./DRV_IIC/IIC.o
                0x1fff078c                IIC_CurrMode
 .bss.IIC_IsIdInit
                0x1fff0790        0x8 ./DRV_IIC/IIC.o
 .bss.IIC_DeviceList
                0x1fff0798       0x48 ./DRV_IIC/IIC.o
 .bss.IIC_WriteDataState
                0x1fff07e0        0x8 ./DRV_IIC/IIC.o
 .bss.IIC_ReadDataState
                0x1fff07e8        0x8 ./DRV_IIC/IIC.o
 .bss.IIC_ManualClockCnt
                0x1fff07f0        0x8 ./DRV_IIC/IIC.o
 .bss.u32IsfPort
                0x1fff07f8       0x14 ./DRV_GPIO/GPIO_interrupts.o
 .bss.RtcDataBuffer
                0x1fff080c        0x8 ./DEV_RTC/RTC.o
 .bss.Rtc_Seconds
                0x1fff0814        0x1 ./DEV_RTC/RTC.o
 .bss.Rtc_Minutes
                0x1fff0815        0x1 ./DEV_RTC/RTC.o
 .bss.Rtc_Hours
                0x1fff0816        0x1 ./DEV_RTC/RTC.o
 .bss.Rtc_Days  0x1fff0817        0x1 ./DEV_RTC/RTC.o
 .bss.Rtc_Months
                0x1fff0818        0x1 ./DEV_RTC/RTC.o
 .bss.Rtc_Years
                0x1fff0819        0x1 ./DEV_RTC/RTC.o
 .bss.Rtc_Flags
                0x1fff081a        0x1 ./DEV_RTC/RTC.o
 .bss.Rtc_SetSeconds
                0x1fff081b        0x1 ./DEV_RTC/RTC.o
 .bss.Rtc_SetMinutes
                0x1fff081c        0x1 ./DEV_RTC/RTC.o
 .bss.Rtc_SetHours
                0x1fff081d        0x1 ./DEV_RTC/RTC.o
 .bss.Rtc_SetDays
                0x1fff081e        0x1 ./DEV_RTC/RTC.o
 .bss.Rtc_SetMonths
                0x1fff081f        0x1 ./DEV_RTC/RTC.o
 .bss.Rtc_SetYears
                0x1fff0820        0x1 ./DEV_RTC/RTC.o
 .bss.RTC_IsInitialized
                0x1fff0821        0x1 ./DEV_RTC/RTC.o
                0x1fff0821                RTC_IsInitialized
 .bss.RTC_ClockIsRunning
                0x1fff0822        0x1 ./DEV_RTC/RTC.o
                0x1fff0822                RTC_ClockIsRunning
 .bss.RTC_ForceRefresh
                0x1fff0823        0x1 ./DEV_RTC/RTC.o
                0x1fff0823                RTC_ForceRefresh
 .bss.RTC_RawTimeStamp
                0x1fff0824        0x4 ./DEV_RTC/RTC.o
                0x1fff0824                RTC_RawTimeStamp
 .bss.RawTimeCount_LastTimeStamp
                0x1fff0828        0x4 ./DEV_RTC/RTC.o
                0x1fff0828                RawTimeCount_LastTimeStamp
 .bss.CurrDateTime.7304
                0x1fff082c        0x8 ./DEV_RTC/RTC.o
 .bss.PrevStepVector.7310
                0x1fff0834        0x1 ./DEV_RTC/RTC.o
 .bss.StepVec_CurrFunctionIndex.7311
                0x1fff0835        0x1 ./DEV_RTC/RTC.o
 .bss.isWaitingIIC.7325
                0x1fff0836        0x1 ./DEV_RTC/RTC.o
 .bss.IICRetryCounter.7326
                0x1fff0837        0x1 ./DEV_RTC/RTC.o
 .bss.isWaitingIIC.7338
                0x1fff0838        0x1 ./DEV_RTC/RTC.o
 .bss.IICRetryCounter.7339
                0x1fff0839        0x1 ./DEV_RTC/RTC.o
 .bss.WaitIsRunning.7362
                0x1fff083a        0x1 ./DEV_RTC/RTC.o
 *fill*         0x1fff083b        0x1 
 .bss.FshLwrOp_Buffer
                0x1fff083c      0x804 ./DEV_MEMORY/LOWER/OPERATION/FLASH_LOWER_OP.o
 .bss.FshLwrOp_IdBuffer
                0x1fff1040        0x4 ./DEV_MEMORY/LOWER/OPERATION/FLASH_LOWER_OP.o
 .bss.FshLwrOp_Status
                0x1fff1044        0x1 ./DEV_MEMORY/LOWER/OPERATION/FLASH_LOWER_OP.o
 .bss.FshLwrOp_BlockStatus
                0x1fff1045        0x1 ./DEV_MEMORY/LOWER/OPERATION/FLASH_LOWER_OP.o
 .bss.FshLwrOp_IsHwInit
                0x1fff1046        0x1 ./DEV_MEMORY/LOWER/OPERATION/FLASH_LOWER_OP.o
 .bss.FshLwrOp_IsIdChecked
                0x1fff1047        0x1 ./DEV_MEMORY/LOWER/OPERATION/FLASH_LOWER_OP.o
 .bss.FshLwrOp_Mode
                0x1fff1048        0x1 ./DEV_MEMORY/LOWER/OPERATION/FLASH_LOWER_OP.o
 .bss.FshLwrOp_State
                0x1fff1049        0x1 ./DEV_MEMORY/LOWER/OPERATION/FLASH_LOWER_OP.o
 .bss.FshLwrOp_Page
                0x1fff104a        0x2 ./DEV_MEMORY/LOWER/OPERATION/FLASH_LOWER_OP.o
 .bss.FshLwrOp_Block
                0x1fff104c        0x2 ./DEV_MEMORY/LOWER/OPERATION/FLASH_LOWER_OP.o
 .bss.FshLwrOp_Plane
                0x1fff104e        0x1 ./DEV_MEMORY/LOWER/OPERATION/FLASH_LOWER_OP.o
 .bss.FshLwrOp_Die
                0x1fff104f        0x1 ./DEV_MEMORY/LOWER/OPERATION/FLASH_LOWER_OP.o
 .bss.FshLwrOp_StateWhenLoopBegan
                0x1fff1050        0x1 ./DEV_MEMORY/LOWER/OPERATION/FLASH_LOWER_OP.o
 .bss.FshLwrOp_StateWhenLoopEnded
                0x1fff1051        0x1 ./DEV_MEMORY/LOWER/OPERATION/FLASH_LOWER_OP.o
 *fill*         0x1fff1052        0x2 
 .bss.SPI_Pars.6508
                0x1fff1054        0x8 ./DEV_MEMORY/LOWER/OPERATION/FLASH_LOWER_OP.o
 .bss.IsRunningWrite.6528
                0x1fff105c        0x1 ./DEV_MEMORY/LOWER/OPERATION/FLASH_LOWER_OP.o
 *fill*         0x1fff105d        0x1 
 .bss.CmdLength.6543
                0x1fff105e        0x2 ./DEV_MEMORY/LOWER/OPERATION/FLASH_LOWER_OP.o
 .bss.CmdStart.6544
                0x1fff1060        0x4 ./DEV_MEMORY/LOWER/OPERATION/FLASH_LOWER_OP.o
 .bss.FlagErrorAfterDisable.6545
                0x1fff1064        0x1 ./DEV_MEMORY/LOWER/OPERATION/FLASH_LOWER_OP.o
 .bss.FlashLwrMngIntf_IsReserveBlockStartKnown
                0x1fff1065        0x1 ./DEV_MEMORY/LOWER/MANAGER/INTERFACE/FLASH_LOWER_MNG_INTF.o
 .bss.FlashLwrMngIntf_ReserveBlockStart
                0x1fff1066        0x2 ./DEV_MEMORY/LOWER/MANAGER/INTERFACE/FLASH_LOWER_MNG_INTF.o
 .bss.FlashLwrMngIntf_PagesPerBlock
                0x1fff1068        0x2 ./DEV_MEMORY/LOWER/MANAGER/INTERFACE/FLASH_LOWER_MNG_INTF.o
 .bss.FlashLwrMngIntf_HasValidBlockBeenFound
                0x1fff106a        0x1 ./DEV_MEMORY/LOWER/MANAGER/INTERFACE/FLASH_LOWER_MNG_INTF.o
 *fill*         0x1fff106b        0x1 
 .bss.FlashLwrMngIntf_ValidBlock
                0x1fff106c        0x2 ./DEV_MEMORY/LOWER/MANAGER/INTERFACE/FLASH_LOWER_MNG_INTF.o
 .bss.FlashLwrMngIntf_TableState
                0x1fff106e        0x1 ./DEV_MEMORY/LOWER/MANAGER/INTERFACE/FLASH_LOWER_MNG_INTF.o
 .bss.FlashLwrMngIntf_IsValidBlockBeingSearched
                0x1fff106f        0x1 ./DEV_MEMORY/LOWER/MANAGER/INTERFACE/FLASH_LOWER_MNG_INTF.o
 .bss.FlashLwrMngIntf_CopyBlkState
                0x1fff1070        0x1 ./DEV_MEMORY/LOWER/MANAGER/INTERFACE/FLASH_LOWER_MNG_INTF.o
 *fill*         0x1fff1071        0x3 
 .bss.Source.4529
                0x1fff1074        0x4 ./DEV_MEMORY/LOWER/MANAGER/INTERFACE/FLASH_LOWER_MNG_INTF.o
 .bss.Target.4530
                0x1fff1078        0x4 ./DEV_MEMORY/LOWER/MANAGER/INTERFACE/FLASH_LOWER_MNG_INTF.o
 .bss.OpCount.4532
                0x1fff107c        0x4 ./DEV_MEMORY/LOWER/MANAGER/INTERFACE/FLASH_LOWER_MNG_INTF.o
 .bss.PageToSkip.4531
                0x1fff1080        0x4 ./DEV_MEMORY/LOWER/MANAGER/INTERFACE/FLASH_LOWER_MNG_INTF.o
 .bss.ReserveTableBlock.4547
                0x1fff1084        0x2 ./DEV_MEMORY/LOWER/MANAGER/INTERFACE/FLASH_LOWER_MNG_INTF.o
 *fill*         0x1fff1086        0x2 
 .bss.ReserveTablePage.4548
                0x1fff1088        0x4 ./DEV_MEMORY/LOWER/MANAGER/INTERFACE/FLASH_LOWER_MNG_INTF.o
 .bss.FlashLwrMng_ReserveTable
                0x1fff108c      0x208 ./DEV_MEMORY/LOWER/MANAGER/FLASH_LOWER_MNG.o
 .bss.FlashLwrMng_NextFreeReserveBlock
                0x1fff1294        0x2 ./DEV_MEMORY/LOWER/MANAGER/FLASH_LOWER_MNG.o
 .bss.FlashLwrMng_PrepareState
                0x1fff1296        0x1 ./DEV_MEMORY/LOWER/MANAGER/FLASH_LOWER_MNG.o
 *fill*         0x1fff1297        0x1 
 .bss.FlashLwrMng_Prepare_Block
                0x1fff1298        0x2 ./DEV_MEMORY/LOWER/MANAGER/FLASH_LOWER_MNG.o
 .bss.FlashLwrMng_ReadState
                0x1fff129a        0x1 ./DEV_MEMORY/LOWER/MANAGER/FLASH_LOWER_MNG.o
 .bss.FlashLwrMng_WriteState
                0x1fff129b        0x1 ./DEV_MEMORY/LOWER/MANAGER/FLASH_LOWER_MNG.o
 .bss.FlashLwrMng_EraseState
                0x1fff129c        0x1 ./DEV_MEMORY/LOWER/MANAGER/FLASH_LOWER_MNG.o
 *fill*         0x1fff129d        0x3 
 .bss.FlashLwrMng_Target_Page
                0x1fff12a0        0x4 ./DEV_MEMORY/LOWER/MANAGER/FLASH_LOWER_MNG.o
 .bss.FlashLwrMng_Target_Block
                0x1fff12a4        0x2 ./DEV_MEMORY/LOWER/MANAGER/FLASH_LOWER_MNG.o
 *fill*         0x1fff12a6        0x2 
 .bss.Flash_TotalSize
                0x1fff12a8        0x4 ./DEV_MEMORY/LOWER/MANAGER/FLASH_LOWER_MNG.o
 .bss.Flash_PageSize
                0x1fff12ac        0x4 ./DEV_MEMORY/LOWER/MANAGER/FLASH_LOWER_MNG.o
 .bss.Flash_BlockSize
                0x1fff12b0        0x4 ./DEV_MEMORY/LOWER/MANAGER/FLASH_LOWER_MNG.o
 .bss.Flash_PagesPerBlock
                0x1fff12b4        0x4 ./DEV_MEMORY/LOWER/MANAGER/FLASH_LOWER_MNG.o
 .bss.Flash_TotalBlockAmount
                0x1fff12b8        0x4 ./DEV_MEMORY/LOWER/MANAGER/FLASH_LOWER_MNG.o
 .bss.Flash_MainBlockAmount
                0x1fff12bc        0x4 ./DEV_MEMORY/LOWER/MANAGER/FLASH_LOWER_MNG.o
 .bss.Flash_Buffer
                0x1fff12c0        0x4 ./DEV_MEMORY/LOWER/MANAGER/FLASH_LOWER_MNG.o
 .bss.FshLwr_IsIntHwInit
                0x1fff12c4        0x1 ./DEV_MEMORY/LOWER/FLASH_LOWER.o
 .bss.FshLwr_Discv_State
                0x1fff12c5        0x1 ./DEV_MEMORY/LOWER/FLASH_LOWER.o
 .bss.FshLwr_OpMode
                0x1fff12c6        0x1 ./DEV_MEMORY/LOWER/FLASH_LOWER.o
 .bss.FshLwr_Machine_State
                0x1fff12c7        0x1 ./DEV_MEMORY/LOWER/FLASH_LOWER.o
 .bss.FshLwr_ReadOp_State
                0x1fff12c8        0x1 ./DEV_MEMORY/LOWER/FLASH_LOWER.o
 .bss.FshLwr_ResetOp_State
                0x1fff12c9        0x1 ./DEV_MEMORY/LOWER/FLASH_LOWER.o
 *fill*         0x1fff12ca        0x2 
 .bss.FshLwr_Buffer
                0x1fff12cc        0x4 ./DEV_MEMORY/LOWER/FLASH_LOWER.o
 .bss.FshLwr_MemData
                0x1fff12d0        0xc ./DEV_MEMORY/LOWER/FLASH_LOWER.o
 .bss.FshLwr_PageHeader
                0x1fff12dc        0x4 ./DEV_MEMORY/LOWER/FLASH_LOWER.o
 .bss.FshLwr_TotalSize
                0x1fff12e0        0x4 ./DEV_MEMORY/LOWER/FLASH_LOWER.o
 .bss.FshLwr_PageSize
                0x1fff12e4        0x4 ./DEV_MEMORY/LOWER/FLASH_LOWER.o
 .bss.FshLwr_BlockSize
                0x1fff12e8        0x4 ./DEV_MEMORY/LOWER/FLASH_LOWER.o
 .bss.FshLwr_RealBlockCount
                0x1fff12ec        0x2 ./DEV_MEMORY/LOWER/FLASH_LOWER.o
 *fill*         0x1fff12ee        0x2 
 .bss.FshLwr_PageCount
                0x1fff12f0        0x4 ./DEV_MEMORY/LOWER/FLASH_LOWER.o
 .bss.FshLwr_BlockCount
                0x1fff12f4        0x4 ./DEV_MEMORY/LOWER/FLASH_LOWER.o
 .bss.FshLwr_PagesPerBlock
                0x1fff12f8        0x4 ./DEV_MEMORY/LOWER/FLASH_LOWER.o
 .bss.FshLwr_VirtualPagesPerBlock
                0x1fff12fc        0x4 ./DEV_MEMORY/LOWER/FLASH_LOWER.o
 .bss.FshLwr_VirtualMemorySize
                0x1fff1300        0x4 ./DEV_MEMORY/LOWER/FLASH_LOWER.o
 .bss.FshLwr_CopyPage
                0x1fff1304        0x4 ./DEV_MEMORY/LOWER/FLASH_LOWER.o
 .bss.FshLwr_CopyPageStart
                0x1fff1308        0x4 ./DEV_MEMORY/LOWER/FLASH_LOWER.o
 .bss.FshLwr_CopyPageEnd
                0x1fff130c        0x4 ./DEV_MEMORY/LOWER/FLASH_LOWER.o
 .bss.FshLwr_OperationAddress
                0x1fff1310        0x4 ./DEV_MEMORY/LOWER/FLASH_LOWER.o
 .bss.FshLwr_OperationLength
                0x1fff1314        0x4 ./DEV_MEMORY/LOWER/FLASH_LOWER.o
 .bss.FshLwr_OperationBuffer
                0x1fff1318        0x4 ./DEV_MEMORY/LOWER/FLASH_LOWER.o
 .bss.FshLwr_BlockToBeErased
                0x1fff131c        0x2 ./DEV_MEMORY/LOWER/FLASH_LOWER.o
 *fill*         0x1fff131e        0x2 
 .bss.FirstVirtualPage.4681
                0x1fff1320        0x4 ./DEV_MEMORY/LOWER/FLASH_LOWER.o
 .bss.LastVirtualPage.4682
                0x1fff1324        0x4 ./DEV_MEMORY/LOWER/FLASH_LOWER.o
 .bss.BytesOffsetOn1stPage.4683
                0x1fff1328        0x4 ./DEV_MEMORY/LOWER/FLASH_LOWER.o
 .bss.BytesRemainingOnNthPage.4684
                0x1fff132c        0x4 ./DEV_MEMORY/LOWER/FLASH_LOWER.o
 .bss.CurrentVirtualPage.4685
                0x1fff1330        0x4 ./DEV_MEMORY/LOWER/FLASH_LOWER.o
 .bss.CurrentBufferPosition.4687
                0x1fff1334        0x4 ./DEV_MEMORY/LOWER/FLASH_LOWER.o
 .bss.CurrentRealPage.4686
                0x1fff1338        0x4 ./DEV_MEMORY/LOWER/FLASH_LOWER.o
 .bss.StartRealPage.4713
                0x1fff133c        0x4 ./DEV_MEMORY/LOWER/FLASH_LOWER.o
 .bss.CurrentRealPage.4714
                0x1fff1340        0x4 ./DEV_MEMORY/LOWER/FLASH_LOWER.o
 .bss.LastRealPage.4715
                0x1fff1344        0x4 ./DEV_MEMORY/LOWER/FLASH_LOWER.o
 .bss.CurrentSequence.4731
                0x1fff1348        0x4 ./DEV_MEMORY/LOWER/FLASH_LOWER.o
 .bss.VirtualPageSequence.4729
                0x1fff134c       0x40 ./DEV_MEMORY/LOWER/FLASH_LOWER.o
 .bss.CopyPageSequence.4730
                0x1fff138c       0x40 ./DEV_MEMORY/LOWER/FLASH_LOWER.o
 .bss.BlockToErase.4733
                0x1fff13cc        0x2 ./DEV_MEMORY/LOWER/FLASH_LOWER.o
 *fill*         0x1fff13ce        0x2 
 .bss.PageToWrite.4732
                0x1fff13d0        0x4 ./DEV_MEMORY/LOWER/FLASH_LOWER.o
 .bss.FshLwr_IdData_Main
                0x1fff13d4       0x74 ./DEV_MEMORY/IDTABLE/FLASH_IDTABLE.o
 .bss.FshLwr_IdData_Backup
                0x1fff1448       0x74 ./DEV_MEMORY/IDTABLE/FLASH_IDTABLE.o
 .bss.FshLwr_PrepareState
                0x1fff14bc        0x1 ./DEV_MEMORY/IDTABLE/FLASH_IDTABLE.o
 .bss.FshLwr_SettleIdState
                0x1fff14bd        0x1 ./DEV_MEMORY/IDTABLE/FLASH_IDTABLE.o
 .bss.FshLwr_SetRecordState
                0x1fff14be        0x1 ./DEV_MEMORY/IDTABLE/FLASH_IDTABLE.o
 .bss.FshLwr_OperationIsRunningMachine
                0x1fff14bf        0x1 ./DEV_MEMORY/IDTABLE/FLASH_IDTABLE.o
 .bss.Fsh_IsIntHwInit
                0x1fff14c0        0x1 ./DEV_MEMORY/FLASH.o
 .bss.Fsh_ExtCfg_State
                0x1fff14c1        0x1 ./DEV_MEMORY/FLASH.o
 *fill*         0x1fff14c2        0x2 
 .bss.Fsh_IsIdInit
                0x1fff14c4        0x8 ./DEV_MEMORY/FLASH.o
 .bss.Fsh_MemoryState
                0x1fff14cc        0x2 ./DEV_MEMORY/FLASH.o
 *fill*         0x1fff14ce        0x2 
 .bss.Fsh_TotalMemory
                0x1fff14d0        0x4 ./DEV_MEMORY/FLASH.o
 .bss.Fsh_AvailableMemory
                0x1fff14d4        0x4 ./DEV_MEMORY/FLASH.o
 .bss.Fsh_State
                0x1fff14d8        0x1 ./DEV_MEMORY/FLASH.o
 .bss.FshRecWrite_State
                0x1fff14d9        0x1 ./DEV_MEMORY/FLASH.o
 .bss.FshRecAppend_State
                0x1fff14da        0x1 ./DEV_MEMORY/FLASH.o
 .bss.Fsh_IdThatIsRunning
                0x1fff14db        0x1 ./DEV_MEMORY/FLASH.o
 .bss.Fsh_OperationAddress
                0x1fff14dc        0x4 ./DEV_MEMORY/FLASH.o
 .bss.Fsh_OperationLength
                0x1fff14e0        0x4 ./DEV_MEMORY/FLASH.o
 .bss.Fsh_OperationIsRunningMachine
                0x1fff14e4        0x1 ./DEV_MEMORY/FLASH.o
 .bss.IdBeingSettled.4620
                0x1fff14e5        0x1 ./DEV_MEMORY/FLASH.o
 *fill*         0x1fff14e6        0x2 
 .bss.Fsh_RecCount.4651
                0x1fff14e8        0x4 ./DEV_MEMORY/FLASH.o
 .bss.Fsh_RecCount.4665
                0x1fff14ec        0x4 ./DEV_MEMORY/FLASH.o
 .bss.VUR_LogLastPosPtr
                0x1fff14f0        0x2 ./COMMON/VarUpdate/VUR.o
                0x1fff14f0                VUR_LogLastPosPtr
 .bss.VUR_LogCurrPosPtr
                0x1fff14f2        0x2 ./COMMON/VarUpdate/VUR.o
                0x1fff14f2                VUR_LogCurrPosPtr
 .bss.VUR_VolLastPosPtr
                0x1fff14f4        0x2 ./COMMON/VarUpdate/VUR.o
                0x1fff14f4                VUR_VolLastPosPtr
 .bss.VUR_VolCurrPosPtr
                0x1fff14f6        0x2 ./COMMON/VarUpdate/VUR.o
                0x1fff14f6                VUR_VolCurrPosPtr
 .bss.EnableDebugHalt
                0x1fff14f8        0x1 ./COMMON/StdHeaders/StdDebug.o
 *fill*         0x1fff14f9        0x3 
 .bss.__malloc_sbrk_start
                0x1fff14fc        0x4 c:/freescale/kds_3.0.0/toolchain/bin/../lib/gcc/arm-none-eabi/4.8.4/../../../../arm-none-eabi/lib/armv7e-m/fpu\libg_s.a(lib_a-nano-mallocr.o)
                0x1fff14fc                __malloc_sbrk_start
 .bss.__malloc_free_list
                0x1fff1500        0x4 c:/freescale/kds_3.0.0/toolchain/bin/../lib/gcc/arm-none-eabi/4.8.4/../../../../arm-none-eabi/lib/armv7e-m/fpu\libg_s.a(lib_a-nano-mallocr.o)
                0x1fff1500                __malloc_free_list
 .bss._daylight
                0x1fff1504        0x4 c:/freescale/kds_3.0.0/toolchain/bin/../lib/gcc/arm-none-eabi/4.8.4/../../../../arm-none-eabi/lib/armv7e-m/fpu\libg_s.a(lib_a-tzvars.o)
                0x1fff1504                _daylight
 .bss.heap_end.4246
                0x1fff1508        0x4 c:/freescale/kds_3.0.0/toolchain/bin/../lib/gcc/arm-none-eabi/4.8.4/../../../../arm-none-eabi/lib/armv7e-m/fpu\libnosys.a(sbrk.o)
 *(COMMON)
 COMMON         0x1fff150c        0x1 ./SOURCE/APP/APP.o
                0x1fff150c                Test_Status
 *fill*         0x1fff150d        0x3 
 COMMON         0x1fff1510       0x14 ./LIB_STORAGE/STORAGE_Ctrl.o
                0x1fff1510                MemoryConfig
 COMMON         0x1fff1524       0xff ./LIB_DATALOGGER/DATALOGGER_Ctrl.o
                0x1fff1524                DlogBuffer
 *fill*         0x1fff1623        0x1 
 COMMON         0x1fff1624     0x3070 ./DRV_SPI/SPI.o
                0x1fff1624                SPI_LastBufIndex
                0x1fff162c                SPI_InpBuffer
                0x1fff2e5c                SPI_CurrBufIndex
                0x1fff2e64                SPI_OutBuffer
 COMMON         0x1fff4694      0x3e8 ./DRV_PIT/PIT.o
                0x1fff4694                Timer
 COMMON         0x1fff4a7c       0x9f ./DRV_IIC/IIC.o
                0x1fff4a7c                IIC_DataBuffer
                0x1fff4af4                IIC_DataAddrIndex
                0x1fff4af8                IIC_PrevStepCnt
                0x1fff4b00                IIC_IdleStepCnt
                0x1fff4b08                IIC_CurrStepCnt
                0x1fff4b10                IIC_Length
                0x1fff4b14                IIC_IntVecCurrState
                0x1fff4b18                IIC_CurrIndex
 *fill*         0x1fff4b1b        0x1 
 COMMON         0x1fff4b1c       0x40 ./DEV_RTC/RTC.o
                0x1fff4b1c                ListOfAlarms
                0x1fff4b58                RTC_CurrentTimeStamp
 COMMON         0x1fff4b5c      0x380 ./COMMON/VarUpdate/VUR.o
                0x1fff4b5c                VUR_LogTable
                0x1fff4d5c                VUR_VolTable
                0x1fff4ddc                VUR_ExtTable
 COMMON         0x1fff4edc        0x4 c:/freescale/kds_3.0.0/toolchain/bin/../lib/gcc/arm-none-eabi/4.8.4/../../../../arm-none-eabi/lib/armv7e-m/fpu\libg_s.a(lib_a-reent.o)
                0x1fff4edc                errno
                0x1fff4ee0                . = ALIGN (0x4)
                0x1fff4ee0                __bss_end__ = .
                0x1fff4ee0                __END_BSS = .

.heap           0x20020000      0x400
                0x20020000                . = ALIGN (0x8)
                0x20020000                __end__ = .
                0x20020000                PROVIDE (end, .)
                0x20020000                __HeapBase = .
                0x20020400                . = (. + HEAP_SIZE)
 *fill*         0x20020000      0x400 
                0x20020400                __HeapLimit = .

.stack          0x20020400      0x400
                0x20020400                . = ALIGN (0x8)
                0x20020800                . = (. + STACK_SIZE)
 *fill*         0x20020400      0x400 
                0x20030000                __StackTop = (ORIGIN (m_data_2) + 0x10000)
                0x2002fc00                __StackLimit = (__StackTop - STACK_SIZE)
                0x20030000                PROVIDE (__stack, __StackTop)

.ARM.attributes
                0x00000000       0x30
 *(.ARM.attributes)
 .ARM.attributes
                0x00000000       0x22 c:/freescale/kds_3.0.0/toolchain/bin/../lib/gcc/arm-none-eabi/4.8.4/armv7e-m/fpu/crti.o
 .ARM.attributes
                0x00000022       0x34 c:/freescale/kds_3.0.0/toolchain/bin/../lib/gcc/arm-none-eabi/4.8.4/armv7e-m/fpu/crtbegin.o
 .ARM.attributes
                0x00000056       0x20 c:/freescale/kds_3.0.0/toolchain/bin/../lib/gcc/arm-none-eabi/4.8.4/../../../../arm-none-eabi/lib/armv7e-m/fpu/crt0.o
 .ARM.attributes
                0x00000076       0x39 ./SOURCE/MAPS/DATALOGGER_Map.o
 .ARM.attributes
                0x000000af       0x39 ./SOURCE/MAPS/STORAGE_MAP.o
 .ARM.attributes
                0x000000e8       0x39 ./SOURCE/MAPS/VARMAP.o
 .ARM.attributes
                0x00000121       0x39 ./SOURCE/APP/APP.o
 .ARM.attributes
                0x0000015a       0x39 ./Project_Settings/Startup_Code/startup.o
 .ARM.attributes
                0x00000193       0x1f ./Project_Settings/Startup_Code/startup_MK64F12.o
 .ARM.attributes
                0x000001b2       0x39 ./Project_Settings/Startup_Code/system_MK64F12.o
 .ARM.attributes
                0x000001eb       0x39 ./LIB_STORAGE/STORAGE_Ctrl.o
 .ARM.attributes
                0x00000224       0x39 ./LIB_STORAGE/STORAGE_Link.o
 .ARM.attributes
                0x0000025d       0x39 ./LIB_DATALOGGER/DATALOGGER_Ctrl.o
 .ARM.attributes
                0x00000296       0x39 ./LIB_DATALOGGER/DATALOGGER_Link.o
 .ARM.attributes
                0x000002cf       0x39 ./DRV_SPI/SPI.o
 .ARM.attributes
                0x00000308       0x39 ./DRV_SPI/SPI_interrupts.o
 .ARM.attributes
                0x00000341       0x39 ./DRV_PIT/PIT.o
 .ARM.attributes
                0x0000037a       0x39 ./DRV_IIC/IIC.o
 .ARM.attributes
                0x000003b3       0x39 ./DRV_IIC/IIC_interrupts.o
 .ARM.attributes
                0x000003ec       0x39 ./DRV_GPIO/GPIO_interrupts.o
 .ARM.attributes
                0x00000425       0x39 ./DEV_RTC/RTC.o
 .ARM.attributes
                0x0000045e       0x39 ./DEV_MEMORY/LOWER/OPERATION/FLASH_LOWER_OP.o
 .ARM.attributes
                0x00000497       0x39 ./DEV_MEMORY/LOWER/MANAGER/INTERFACE/FLASH_LOWER_MNG_INTF.o
 .ARM.attributes
                0x000004d0       0x39 ./DEV_MEMORY/LOWER/MANAGER/FLASH_LOWER_MNG.o
 .ARM.attributes
                0x00000509       0x39 ./DEV_MEMORY/LOWER/FLASH_LOWER.o
 .ARM.attributes
                0x00000542       0x39 ./DEV_MEMORY/IDTABLE/FLASH_IDTABLE.o
 .ARM.attributes
                0x0000057b       0x39 ./DEV_MEMORY/FLASH.o
 .ARM.attributes
                0x000005b4       0x39 ./COMMON/VarUpdate/VUR.o
 .ARM.attributes
                0x000005ed       0x39 ./COMMON/StdHeaders/StdDebug.o
 .ARM.attributes
                0x00000626       0x39 ./COMMON/CustoMath/CustoMath.o
 .ARM.attributes
                0x0000065f       0x39 ./COMMON/Checksum/checksum.o
 .ARM.attributes
                0x00000698       0x34 c:/freescale/kds_3.0.0/toolchain/bin/../lib/gcc/arm-none-eabi/4.8.4/../../../../arm-none-eabi/lib/armv7e-m/fpu\libg_s.a(lib_a-exit.o)
 .ARM.attributes
                0x000006cc       0x34 c:/freescale/kds_3.0.0/toolchain/bin/../lib/gcc/arm-none-eabi/4.8.4/../../../../arm-none-eabi/lib/armv7e-m/fpu\libg_s.a(lib_a-impure.o)
 .ARM.attributes
                0x00000700       0x34 c:/freescale/kds_3.0.0/toolchain/bin/../lib/gcc/arm-none-eabi/4.8.4/../../../../arm-none-eabi/lib/armv7e-m/fpu\libg_s.a(lib_a-init.o)
 .ARM.attributes
                0x00000734       0x34 c:/freescale/kds_3.0.0/toolchain/bin/../lib/gcc/arm-none-eabi/4.8.4/../../../../arm-none-eabi/lib/armv7e-m/fpu\libg_s.a(lib_a-lcltime.o)
 .ARM.attributes
                0x00000768       0x34 c:/freescale/kds_3.0.0/toolchain/bin/../lib/gcc/arm-none-eabi/4.8.4/../../../../arm-none-eabi/lib/armv7e-m/fpu\libg_s.a(lib_a-lcltime_r.o)
 .ARM.attributes
                0x0000079c       0x34 c:/freescale/kds_3.0.0/toolchain/bin/../lib/gcc/arm-none-eabi/4.8.4/../../../../arm-none-eabi/lib/armv7e-m/fpu\libg_s.a(lib_a-malloc.o)
 .ARM.attributes
                0x000007d0       0x34 c:/freescale/kds_3.0.0/toolchain/bin/../lib/gcc/arm-none-eabi/4.8.4/../../../../arm-none-eabi/lib/armv7e-m/fpu\libg_s.a(lib_a-memcpy-stub.o)
 .ARM.attributes
                0x00000804       0x34 c:/freescale/kds_3.0.0/toolchain/bin/../lib/gcc/arm-none-eabi/4.8.4/../../../../arm-none-eabi/lib/armv7e-m/fpu\libg_s.a(lib_a-memset.o)
 .ARM.attributes
                0x00000838       0x34 c:/freescale/kds_3.0.0/toolchain/bin/../lib/gcc/arm-none-eabi/4.8.4/../../../../arm-none-eabi/lib/armv7e-m/fpu\libg_s.a(lib_a-mktime.o)
 .ARM.attributes
                0x0000086c       0x34 c:/freescale/kds_3.0.0/toolchain/bin/../lib/gcc/arm-none-eabi/4.8.4/../../../../arm-none-eabi/lib/armv7e-m/fpu\libg_s.a(lib_a-mktm_r.o)
 .ARM.attributes
                0x000008a0       0x34 c:/freescale/kds_3.0.0/toolchain/bin/../lib/gcc/arm-none-eabi/4.8.4/../../../../arm-none-eabi/lib/armv7e-m/fpu\libg_s.a(lib_a-nano-freer.o)
 .ARM.attributes
                0x000008d4       0x34 c:/freescale/kds_3.0.0/toolchain/bin/../lib/gcc/arm-none-eabi/4.8.4/../../../../arm-none-eabi/lib/armv7e-m/fpu\libg_s.a(lib_a-nano-mallocr.o)
 .ARM.attributes
                0x00000908       0x34 c:/freescale/kds_3.0.0/toolchain/bin/../lib/gcc/arm-none-eabi/4.8.4/../../../../arm-none-eabi/lib/armv7e-m/fpu\libg_s.a(lib_a-sbrkr.o)
 .ARM.attributes
                0x0000093c       0x34 c:/freescale/kds_3.0.0/toolchain/bin/../lib/gcc/arm-none-eabi/4.8.4/../../../../arm-none-eabi/lib/armv7e-m/fpu\libg_s.a(lib_a-tzlock.o)
 .ARM.attributes
                0x00000970       0x34 c:/freescale/kds_3.0.0/toolchain/bin/../lib/gcc/arm-none-eabi/4.8.4/../../../../arm-none-eabi/lib/armv7e-m/fpu\libg_s.a(lib_a-tzvars.o)
 .ARM.attributes
                0x000009a4       0x34 c:/freescale/kds_3.0.0/toolchain/bin/../lib/gcc/arm-none-eabi/4.8.4/../../../../arm-none-eabi/lib/armv7e-m/fpu\libg_s.a(lib_a-div.o)
 .ARM.attributes
                0x000009d8       0x34 c:/freescale/kds_3.0.0/toolchain/bin/../lib/gcc/arm-none-eabi/4.8.4/../../../../arm-none-eabi/lib/armv7e-m/fpu\libg_s.a(lib_a-gettzinfo.o)
 .ARM.attributes
                0x00000a0c       0x34 c:/freescale/kds_3.0.0/toolchain/bin/../lib/gcc/arm-none-eabi/4.8.4/../../../../arm-none-eabi/lib/armv7e-m/fpu\libg_s.a(lib_a-reent.o)
 .ARM.attributes
                0x00000a40       0x34 c:/freescale/kds_3.0.0/toolchain/bin/../lib/gcc/arm-none-eabi/4.8.4/../../../../arm-none-eabi/lib/armv7e-m/fpu\libnosys.a(sbrk.o)
 .ARM.attributes
                0x00000a74       0x34 c:/freescale/kds_3.0.0/toolchain/bin/../lib/gcc/arm-none-eabi/4.8.4/../../../../arm-none-eabi/lib/armv7e-m/fpu\libnosys.a(_exit.o)
 .ARM.attributes
                0x00000aa8       0x34 c:/freescale/kds_3.0.0/toolchain/bin/../lib/gcc/arm-none-eabi/4.8.4/armv7e-m/fpu/crtend.o
 .ARM.attributes
                0x00000adc       0x22 c:/freescale/kds_3.0.0/toolchain/bin/../lib/gcc/arm-none-eabi/4.8.4/armv7e-m/fpu/crtn.o
                0x00000001                ASSERT ((__StackLimit >= __HeapLimit), region m_data_2 overflowed with stack and heap)
OUTPUT(AXIOM_APP.elf elf32-littlearm)

.debug_info     0x00000000    0x145b3
 .debug_info    0x00000000     0x1c58 ./SOURCE/MAPS/DATALOGGER_Map.o
 .debug_info    0x00001c58      0x164 ./SOURCE/MAPS/STORAGE_MAP.o
 .debug_info    0x00001dbc      0x2ae ./SOURCE/MAPS/VARMAP.o
 .debug_info    0x0000206a      0xd84 ./SOURCE/APP/APP.o
 .debug_info    0x00002dee      0x3a3 ./Project_Settings/Startup_Code/startup.o
 .debug_info    0x00003191       0x93 ./Project_Settings/Startup_Code/startup_MK64F12.o
 .debug_info    0x00003224      0xa77 ./Project_Settings/Startup_Code/system_MK64F12.o
 .debug_info    0x00003c9b      0xc17 ./LIB_STORAGE/STORAGE_Ctrl.o
 .debug_info    0x000048b2      0xa00 ./LIB_STORAGE/STORAGE_Link.o
 .debug_info    0x000052b2     0x1383 ./LIB_DATALOGGER/DATALOGGER_Ctrl.o
 .debug_info    0x00006635     0x1421 ./LIB_DATALOGGER/DATALOGGER_Link.o
 .debug_info    0x00007a56     0x15ce ./DRV_SPI/SPI.o
 .debug_info    0x00009024      0x33b ./DRV_SPI/SPI_interrupts.o
 .debug_info    0x0000935f      0x743 ./DRV_PIT/PIT.o
 .debug_info    0x00009aa2     0x1379 ./DRV_IIC/IIC.o
 .debug_info    0x0000ae1b      0x41a ./DRV_IIC/IIC_interrupts.o
 .debug_info    0x0000b235      0x2e3 ./DRV_GPIO/GPIO_interrupts.o
 .debug_info    0x0000b518      0xeda ./DEV_RTC/RTC.o
 .debug_info    0x0000c3f2      0xf94 ./DEV_MEMORY/LOWER/OPERATION/FLASH_LOWER_OP.o
 .debug_info    0x0000d386      0x62b ./DEV_MEMORY/LOWER/MANAGER/INTERFACE/FLASH_LOWER_MNG_INTF.o
 .debug_info    0x0000d9b1      0x990 ./DEV_MEMORY/LOWER/MANAGER/FLASH_LOWER_MNG.o
 .debug_info    0x0000e341      0xec8 ./DEV_MEMORY/LOWER/FLASH_LOWER.o
 .debug_info    0x0000f209      0xf6a ./DEV_MEMORY/IDTABLE/FLASH_IDTABLE.o
 .debug_info    0x00010173      0xca5 ./DEV_MEMORY/FLASH.o
 .debug_info    0x00010e18      0xc84 ./COMMON/VarUpdate/VUR.o
 .debug_info    0x00011a9c      0x13b ./COMMON/StdHeaders/StdDebug.o
 .debug_info    0x00011bd7     0x211b ./COMMON/CustoMath/CustoMath.o
 .debug_info    0x00013cf2      0x8c1 ./COMMON/Checksum/checksum.o

.debug_abbrev   0x00000000     0x264e
 .debug_abbrev  0x00000000       0xce ./SOURCE/MAPS/DATALOGGER_Map.o
 .debug_abbrev  0x000000ce       0xae ./SOURCE/MAPS/STORAGE_MAP.o
 .debug_abbrev  0x0000017c       0x96 ./SOURCE/MAPS/VARMAP.o
 .debug_abbrev  0x00000212       0xcf ./SOURCE/APP/APP.o
 .debug_abbrev  0x000002e1       0xf7 ./Project_Settings/Startup_Code/startup.o
 .debug_abbrev  0x000003d8       0x14 ./Project_Settings/Startup_Code/startup_MK64F12.o
 .debug_abbrev  0x000003ec      0x147 ./Project_Settings/Startup_Code/system_MK64F12.o
 .debug_abbrev  0x00000533      0x154 ./LIB_STORAGE/STORAGE_Ctrl.o
 .debug_abbrev  0x00000687      0x1a6 ./LIB_STORAGE/STORAGE_Link.o
 .debug_abbrev  0x0000082d      0x1bf ./LIB_DATALOGGER/DATALOGGER_Ctrl.o
 .debug_abbrev  0x000009ec      0x18b ./LIB_DATALOGGER/DATALOGGER_Link.o
 .debug_abbrev  0x00000b77      0x21b ./DRV_SPI/SPI.o
 .debug_abbrev  0x00000d92      0x109 ./DRV_SPI/SPI_interrupts.o
 .debug_abbrev  0x00000e9b      0x19b ./DRV_PIT/PIT.o
 .debug_abbrev  0x00001036      0x248 ./DRV_IIC/IIC.o
 .debug_abbrev  0x0000127e      0x123 ./DRV_IIC/IIC_interrupts.o
 .debug_abbrev  0x000013a1      0x101 ./DRV_GPIO/GPIO_interrupts.o
 .debug_abbrev  0x000014a2      0x1bd ./DEV_RTC/RTC.o
 .debug_abbrev  0x0000165f      0x1d8 ./DEV_MEMORY/LOWER/OPERATION/FLASH_LOWER_OP.o
 .debug_abbrev  0x00001837      0x11f ./DEV_MEMORY/LOWER/MANAGER/INTERFACE/FLASH_LOWER_MNG_INTF.o
 .debug_abbrev  0x00001956      0x191 ./DEV_MEMORY/LOWER/MANAGER/FLASH_LOWER_MNG.o
 .debug_abbrev  0x00001ae7      0x1aa ./DEV_MEMORY/LOWER/FLASH_LOWER.o
 .debug_abbrev  0x00001c91      0x1d7 ./DEV_MEMORY/IDTABLE/FLASH_IDTABLE.o
 .debug_abbrev  0x00001e68      0x198 ./DEV_MEMORY/FLASH.o
 .debug_abbrev  0x00002000      0x1ec ./COMMON/VarUpdate/VUR.o
 .debug_abbrev  0x000021ec       0x9d ./COMMON/StdHeaders/StdDebug.o
 .debug_abbrev  0x00002289      0x23b ./COMMON/CustoMath/CustoMath.o
 .debug_abbrev  0x000024c4      0x18a ./COMMON/Checksum/checksum.o

.debug_aranges  0x00000000      0xc58
 .debug_aranges
                0x00000000       0x18 ./SOURCE/MAPS/DATALOGGER_Map.o
 .debug_aranges
                0x00000018       0x18 ./SOURCE/MAPS/STORAGE_MAP.o
 .debug_aranges
                0x00000030       0x18 ./SOURCE/MAPS/VARMAP.o
 .debug_aranges
                0x00000048       0x20 ./SOURCE/APP/APP.o
 .debug_aranges
                0x00000068       0x20 ./Project_Settings/Startup_Code/startup.o
 .debug_aranges
                0x00000088       0x20 ./Project_Settings/Startup_Code/startup_MK64F12.o
 .debug_aranges
                0x000000a8       0x30 ./Project_Settings/Startup_Code/system_MK64F12.o
 .debug_aranges
                0x000000d8       0x40 ./LIB_STORAGE/STORAGE_Ctrl.o
 .debug_aranges
                0x00000118       0x78 ./LIB_STORAGE/STORAGE_Link.o
 .debug_aranges
                0x00000190       0x48 ./LIB_DATALOGGER/DATALOGGER_Ctrl.o
 .debug_aranges
                0x000001d8       0x28 ./LIB_DATALOGGER/DATALOGGER_Link.o
 .debug_aranges
                0x00000200       0x90 ./DRV_SPI/SPI.o
 .debug_aranges
                0x00000290       0x28 ./DRV_SPI/SPI_interrupts.o
 .debug_aranges
                0x000002b8       0x40 ./DRV_PIT/PIT.o
 .debug_aranges
                0x000002f8       0x78 ./DRV_IIC/IIC.o
 .debug_aranges
                0x00000370       0x48 ./DRV_IIC/IIC_interrupts.o
 .debug_aranges
                0x000003b8       0x48 ./DRV_GPIO/GPIO_interrupts.o
 .debug_aranges
                0x00000400       0xd8 ./DEV_RTC/RTC.o
 .debug_aranges
                0x000004d8      0x148 ./DEV_MEMORY/LOWER/OPERATION/FLASH_LOWER_OP.o
 .debug_aranges
                0x00000620       0x50 ./DEV_MEMORY/LOWER/MANAGER/INTERFACE/FLASH_LOWER_MNG_INTF.o
 .debug_aranges
                0x00000670       0xa0 ./DEV_MEMORY/LOWER/MANAGER/FLASH_LOWER_MNG.o
 .debug_aranges
                0x00000710       0xe8 ./DEV_MEMORY/LOWER/FLASH_LOWER.o
 .debug_aranges
                0x000007f8      0x150 ./DEV_MEMORY/IDTABLE/FLASH_IDTABLE.o
 .debug_aranges
                0x00000948       0xd0 ./DEV_MEMORY/FLASH.o
 .debug_aranges
                0x00000a18       0x80 ./COMMON/VarUpdate/VUR.o
 .debug_aranges
                0x00000a98       0x20 ./COMMON/StdHeaders/StdDebug.o
 .debug_aranges
                0x00000ab8      0x160 ./COMMON/CustoMath/CustoMath.o
 .debug_aranges
                0x00000c18       0x40 ./COMMON/Checksum/checksum.o

.debug_line     0x00000000     0x5e07
 .debug_line    0x00000000      0x13b ./SOURCE/MAPS/DATALOGGER_Map.o
 .debug_line    0x0000013b       0xd7 ./SOURCE/MAPS/STORAGE_MAP.o
 .debug_line    0x00000212       0x8b ./SOURCE/MAPS/VARMAP.o
 .debug_line    0x0000029d      0x178 ./SOURCE/APP/APP.o
 .debug_line    0x00000415      0x17d ./Project_Settings/Startup_Code/startup.o
 .debug_line    0x00000592       0x6a ./Project_Settings/Startup_Code/startup_MK64F12.o
 .debug_line    0x000005fc      0x26d ./Project_Settings/Startup_Code/system_MK64F12.o
 .debug_line    0x00000869      0x296 ./LIB_STORAGE/STORAGE_Ctrl.o
 .debug_line    0x00000aff      0x32e ./LIB_STORAGE/STORAGE_Link.o
 .debug_line    0x00000e2d      0x370 ./LIB_DATALOGGER/DATALOGGER_Ctrl.o
 .debug_line    0x0000119d      0x267 ./LIB_DATALOGGER/DATALOGGER_Link.o
 .debug_line    0x00001404      0x49b ./DRV_SPI/SPI.o
 .debug_line    0x0000189f      0x245 ./DRV_SPI/SPI_interrupts.o
 .debug_line    0x00001ae4      0x2b9 ./DRV_PIT/PIT.o
 .debug_line    0x00001d9d      0x4fe ./DRV_IIC/IIC.o
 .debug_line    0x0000229b      0x376 ./DRV_IIC/IIC_interrupts.o
 .debug_line    0x00002611      0x293 ./DRV_GPIO/GPIO_interrupts.o
 .debug_line    0x000028a4      0x65d ./DEV_RTC/RTC.o
 .debug_line    0x00002f01      0x724 ./DEV_MEMORY/LOWER/OPERATION/FLASH_LOWER_OP.o
 .debug_line    0x00003625      0x233 ./DEV_MEMORY/LOWER/MANAGER/INTERFACE/FLASH_LOWER_MNG_INTF.o
 .debug_line    0x00003858      0x373 ./DEV_MEMORY/LOWER/MANAGER/FLASH_LOWER_MNG.o
 .debug_line    0x00003bcb      0x507 ./DEV_MEMORY/LOWER/FLASH_LOWER.o
 .debug_line    0x000040d2      0x61e ./DEV_MEMORY/IDTABLE/FLASH_IDTABLE.o
 .debug_line    0x000046f0      0x3e4 ./DEV_MEMORY/FLASH.o
 .debug_line    0x00004ad4      0x307 ./COMMON/VarUpdate/VUR.o
 .debug_line    0x00004ddb      0x177 ./COMMON/StdHeaders/StdDebug.o
 .debug_line    0x00004f52      0xbd1 ./COMMON/CustoMath/CustoMath.o
 .debug_line    0x00005b23      0x2e4 ./COMMON/Checksum/checksum.o

.debug_str      0x00000000     0x956f
 .debug_str     0x00000000     0x1e28 ./SOURCE/MAPS/DATALOGGER_Map.o
                               0x2159 (size before relaxing)
 .debug_str     0x00001e28       0x6d ./SOURCE/MAPS/STORAGE_MAP.o
                                0x24c (size before relaxing)
 .debug_str     0x00001e95      0x197 ./SOURCE/MAPS/VARMAP.o
                                0x37f (size before relaxing)
 .debug_str     0x0000202c       0xf6 ./SOURCE/APP/APP.o
                                0xf62 (size before relaxing)
 .debug_str     0x00002122      0x17d ./Project_Settings/Startup_Code/startup.o
                                0x339 (size before relaxing)
 .debug_str     0x0000229f      0x721 ./Project_Settings/Startup_Code/system_MK64F12.o
                                0x984 (size before relaxing)
 .debug_str     0x000029c0      0x86c ./LIB_STORAGE/STORAGE_Ctrl.o
                                0xc00 (size before relaxing)
 .debug_str     0x0000322c      0x3d2 ./LIB_STORAGE/STORAGE_Link.o
                                0xc86 (size before relaxing)
 .debug_str     0x000035fe      0x218 ./LIB_DATALOGGER/DATALOGGER_Ctrl.o
                               0x15d7 (size before relaxing)
 .debug_str     0x00003816      0x503 ./LIB_DATALOGGER/DATALOGGER_Link.o
                               0x18ec (size before relaxing)
 .debug_str     0x00003d19      0x95b ./DRV_SPI/SPI.o
                               0x1562 (size before relaxing)
 .debug_str     0x00004674       0x72 ./DRV_SPI/SPI_interrupts.o
                                0x351 (size before relaxing)
 .debug_str     0x000046e6      0x165 ./DRV_PIT/PIT.o
                                0x844 (size before relaxing)
 .debug_str     0x0000484b      0x8be ./DRV_IIC/IIC.o
                               0x1199 (size before relaxing)
 .debug_str     0x00005109       0xfa ./DRV_IIC/IIC_interrupts.o
                                0x48e (size before relaxing)
 .debug_str     0x00005203       0xf6 ./DRV_GPIO/GPIO_interrupts.o
                                0x31b (size before relaxing)
 .debug_str     0x000052f9      0x4c7 ./DEV_RTC/RTC.o
                                0xe7a (size before relaxing)
 .debug_str     0x000057c0      0xa66 ./DEV_MEMORY/LOWER/OPERATION/FLASH_LOWER_OP.o
                               0x1499 (size before relaxing)
 .debug_str     0x00006226      0x435 ./DEV_MEMORY/LOWER/MANAGER/INTERFACE/FLASH_LOWER_MNG_INTF.o
                                0xa65 (size before relaxing)
 .debug_str     0x0000665b      0x780 ./DEV_MEMORY/LOWER/MANAGER/FLASH_LOWER_MNG.o
                                0xdbb (size before relaxing)
 .debug_str     0x00006ddb      0xad5 ./DEV_MEMORY/LOWER/FLASH_LOWER.o
                               0x115d (size before relaxing)
 .debug_str     0x000078b0      0x798 ./DEV_MEMORY/IDTABLE/FLASH_IDTABLE.o
                                0xe34 (size before relaxing)
 .debug_str     0x00008048      0x552 ./DEV_MEMORY/FLASH.o
                                0xc76 (size before relaxing)
 .debug_str     0x0000859a      0x3b9 ./COMMON/VarUpdate/VUR.o
                                0xb6f (size before relaxing)
 .debug_str     0x00008953       0x8a ./COMMON/StdHeaders/StdDebug.o
                                0x233 (size before relaxing)
 .debug_str     0x000089dd      0xa41 ./COMMON/CustoMath/CustoMath.o
                               0x11a1 (size before relaxing)
 .debug_str     0x0000941e      0x151 ./COMMON/Checksum/checksum.o
                                0x86e (size before relaxing)

.comment        0x00000000       0x70
 .comment       0x00000000       0x70 ./SOURCE/MAPS/DATALOGGER_Map.o
                                 0x71 (size before relaxing)
 .comment       0x00000000       0x71 ./SOURCE/MAPS/STORAGE_MAP.o
 .comment       0x00000000       0x71 ./SOURCE/MAPS/VARMAP.o
 .comment       0x00000000       0x71 ./SOURCE/APP/APP.o
 .comment       0x00000000       0x71 ./Project_Settings/Startup_Code/startup.o
 .comment       0x00000000       0x71 ./Project_Settings/Startup_Code/system_MK64F12.o
 .comment       0x00000000       0x71 ./LIB_STORAGE/STORAGE_Ctrl.o
 .comment       0x00000000       0x71 ./LIB_STORAGE/STORAGE_Link.o
 .comment       0x00000000       0x71 ./LIB_DATALOGGER/DATALOGGER_Ctrl.o
 .comment       0x00000000       0x71 ./LIB_DATALOGGER/DATALOGGER_Link.o
 .comment       0x00000000       0x71 ./DRV_SPI/SPI.o
 .comment       0x00000000       0x71 ./DRV_SPI/SPI_interrupts.o
 .comment       0x00000000       0x71 ./DRV_PIT/PIT.o
 .comment       0x00000000       0x71 ./DRV_IIC/IIC.o
 .comment       0x00000000       0x71 ./DRV_IIC/IIC_interrupts.o
 .comment       0x00000000       0x71 ./DRV_GPIO/GPIO_interrupts.o
 .comment       0x00000000       0x71 ./DEV_RTC/RTC.o
 .comment       0x00000000       0x71 ./DEV_MEMORY/LOWER/OPERATION/FLASH_LOWER_OP.o
 .comment       0x00000000       0x71 ./DEV_MEMORY/LOWER/MANAGER/INTERFACE/FLASH_LOWER_MNG_INTF.o
 .comment       0x00000000       0x71 ./DEV_MEMORY/LOWER/MANAGER/FLASH_LOWER_MNG.o
 .comment       0x00000000       0x71 ./DEV_MEMORY/LOWER/FLASH_LOWER.o
 .comment       0x00000000       0x71 ./DEV_MEMORY/IDTABLE/FLASH_IDTABLE.o
 .comment       0x00000000       0x71 ./DEV_MEMORY/FLASH.o
 .comment       0x00000000       0x71 ./COMMON/VarUpdate/VUR.o
 .comment       0x00000000       0x71 ./COMMON/StdHeaders/StdDebug.o
 .comment       0x00000000       0x71 ./COMMON/CustoMath/CustoMath.o
 .comment       0x00000000       0x71 ./COMMON/Checksum/checksum.o

.debug_ranges   0x00000000      0xab8
 .debug_ranges  0x00000000       0x10 ./SOURCE/APP/APP.o
 .debug_ranges  0x00000010       0x10 ./Project_Settings/Startup_Code/startup.o
 .debug_ranges  0x00000020       0x20 ./Project_Settings/Startup_Code/system_MK64F12.o
 .debug_ranges  0x00000040       0x30 ./LIB_STORAGE/STORAGE_Ctrl.o
 .debug_ranges  0x00000070       0x68 ./LIB_STORAGE/STORAGE_Link.o
 .debug_ranges  0x000000d8       0x50 ./LIB_DATALOGGER/DATALOGGER_Ctrl.o
 .debug_ranges  0x00000128       0x18 ./LIB_DATALOGGER/DATALOGGER_Link.o
 .debug_ranges  0x00000140       0x80 ./DRV_SPI/SPI.o
 .debug_ranges  0x000001c0       0x18 ./DRV_SPI/SPI_interrupts.o
 .debug_ranges  0x000001d8       0x30 ./DRV_PIT/PIT.o
 .debug_ranges  0x00000208       0x68 ./DRV_IIC/IIC.o
 .debug_ranges  0x00000270       0x38 ./DRV_IIC/IIC_interrupts.o
 .debug_ranges  0x000002a8       0x38 ./DRV_GPIO/GPIO_interrupts.o
 .debug_ranges  0x000002e0       0xc8 ./DEV_RTC/RTC.o
 .debug_ranges  0x000003a8      0x138 ./DEV_MEMORY/LOWER/OPERATION/FLASH_LOWER_OP.o
 .debug_ranges  0x000004e0       0x40 ./DEV_MEMORY/LOWER/MANAGER/INTERFACE/FLASH_LOWER_MNG_INTF.o
 .debug_ranges  0x00000520       0x90 ./DEV_MEMORY/LOWER/MANAGER/FLASH_LOWER_MNG.o
 .debug_ranges  0x000005b0       0xd8 ./DEV_MEMORY/LOWER/FLASH_LOWER.o
 .debug_ranges  0x00000688      0x140 ./DEV_MEMORY/IDTABLE/FLASH_IDTABLE.o
 .debug_ranges  0x000007c8       0xc0 ./DEV_MEMORY/FLASH.o
 .debug_ranges  0x00000888       0x70 ./COMMON/VarUpdate/VUR.o
 .debug_ranges  0x000008f8       0x10 ./COMMON/StdHeaders/StdDebug.o
 .debug_ranges  0x00000908      0x180 ./COMMON/CustoMath/CustoMath.o
 .debug_ranges  0x00000a88       0x30 ./COMMON/Checksum/checksum.o

.debug_frame    0x00000000     0x2930
 .debug_frame   0x00000000       0x2c ./SOURCE/APP/APP.o
 .debug_frame   0x0000002c       0x2c ./Project_Settings/Startup_Code/startup.o
 .debug_frame   0x00000058       0x5c ./Project_Settings/Startup_Code/system_MK64F12.o
 .debug_frame   0x000000b4       0xb0 ./LIB_STORAGE/STORAGE_Ctrl.o
 .debug_frame   0x00000164      0x150 ./LIB_STORAGE/STORAGE_Link.o
 .debug_frame   0x000002b4       0xd0 ./LIB_DATALOGGER/DATALOGGER_Ctrl.o
 .debug_frame   0x00000384       0x50 ./LIB_DATALOGGER/DATALOGGER_Link.o
 .debug_frame   0x000003d4      0x1e0 ./DRV_SPI/SPI.o
 .debug_frame   0x000005b4       0x40 ./DRV_SPI/SPI_interrupts.o
 .debug_frame   0x000005f4       0x94 ./DRV_PIT/PIT.o
 .debug_frame   0x00000688      0x178 ./DRV_IIC/IIC.o
 .debug_frame   0x00000800       0xc4 ./DRV_IIC/IIC_interrupts.o
 .debug_frame   0x000008c4       0xb8 ./DRV_GPIO/GPIO_interrupts.o
 .debug_frame   0x0000097c      0x2f4 ./DEV_RTC/RTC.o
 .debug_frame   0x00000c70      0x470 ./DEV_MEMORY/LOWER/OPERATION/FLASH_LOWER_OP.o
 .debug_frame   0x000010e0       0xe0 ./DEV_MEMORY/LOWER/MANAGER/INTERFACE/FLASH_LOWER_MNG_INTF.o
 .debug_frame   0x000011c0      0x208 ./DEV_MEMORY/LOWER/MANAGER/FLASH_LOWER_MNG.o
 .debug_frame   0x000013c8      0x310 ./DEV_MEMORY/LOWER/FLASH_LOWER.o
 .debug_frame   0x000016d8      0x4c0 ./DEV_MEMORY/IDTABLE/FLASH_IDTABLE.o
 .debug_frame   0x00001b98      0x2d0 ./DEV_MEMORY/FLASH.o
 .debug_frame   0x00001e68      0x190 ./COMMON/VarUpdate/VUR.o
 .debug_frame   0x00001ff8       0x28 ./COMMON/StdHeaders/StdDebug.o
 .debug_frame   0x00002020      0x528 ./COMMON/CustoMath/CustoMath.o
 .debug_frame   0x00002548       0x9c ./COMMON/Checksum/checksum.o
 .debug_frame   0x000025e4       0x28 c:/freescale/kds_3.0.0/toolchain/bin/../lib/gcc/arm-none-eabi/4.8.4/../../../../arm-none-eabi/lib/armv7e-m/fpu\libg_s.a(lib_a-exit.o)
 .debug_frame   0x0000260c       0x2c c:/freescale/kds_3.0.0/toolchain/bin/../lib/gcc/arm-none-eabi/4.8.4/../../../../arm-none-eabi/lib/armv7e-m/fpu\libg_s.a(lib_a-init.o)
 .debug_frame   0x00002638       0x2c c:/freescale/kds_3.0.0/toolchain/bin/../lib/gcc/arm-none-eabi/4.8.4/../../../../arm-none-eabi/lib/armv7e-m/fpu\libg_s.a(lib_a-lcltime.o)
 .debug_frame   0x00002664       0x20 c:/freescale/kds_3.0.0/toolchain/bin/../lib/gcc/arm-none-eabi/4.8.4/../../../../arm-none-eabi/lib/armv7e-m/fpu\libg_s.a(lib_a-lcltime_r.o)
 .debug_frame   0x00002684       0x30 c:/freescale/kds_3.0.0/toolchain/bin/../lib/gcc/arm-none-eabi/4.8.4/../../../../arm-none-eabi/lib/armv7e-m/fpu\libg_s.a(lib_a-malloc.o)
 .debug_frame   0x000026b4       0x28 c:/freescale/kds_3.0.0/toolchain/bin/../lib/gcc/arm-none-eabi/4.8.4/../../../../arm-none-eabi/lib/armv7e-m/fpu\libg_s.a(lib_a-memcpy-stub.o)
 .debug_frame   0x000026dc       0x20 c:/freescale/kds_3.0.0/toolchain/bin/../lib/gcc/arm-none-eabi/4.8.4/../../../../arm-none-eabi/lib/armv7e-m/fpu\libg_s.a(lib_a-memset.o)
 .debug_frame   0x000026fc       0x54 c:/freescale/kds_3.0.0/toolchain/bin/../lib/gcc/arm-none-eabi/4.8.4/../../../../arm-none-eabi/lib/armv7e-m/fpu\libg_s.a(lib_a-mktime.o)
 .debug_frame   0x00002750       0x5c c:/freescale/kds_3.0.0/toolchain/bin/../lib/gcc/arm-none-eabi/4.8.4/../../../../arm-none-eabi/lib/armv7e-m/fpu\libg_s.a(lib_a-mktm_r.o)
 .debug_frame   0x000027ac       0x2c c:/freescale/kds_3.0.0/toolchain/bin/../lib/gcc/arm-none-eabi/4.8.4/../../../../arm-none-eabi/lib/armv7e-m/fpu\libg_s.a(lib_a-nano-freer.o)
 .debug_frame   0x000027d8       0x2c c:/freescale/kds_3.0.0/toolchain/bin/../lib/gcc/arm-none-eabi/4.8.4/../../../../arm-none-eabi/lib/armv7e-m/fpu\libg_s.a(lib_a-nano-mallocr.o)
 .debug_frame   0x00002804       0x2c c:/freescale/kds_3.0.0/toolchain/bin/../lib/gcc/arm-none-eabi/4.8.4/../../../../arm-none-eabi/lib/armv7e-m/fpu\libg_s.a(lib_a-sbrkr.o)
 .debug_frame   0x00002830       0x30 c:/freescale/kds_3.0.0/toolchain/bin/../lib/gcc/arm-none-eabi/4.8.4/../../../../arm-none-eabi/lib/armv7e-m/fpu\libg_s.a(lib_a-tzlock.o)
 .debug_frame   0x00002860       0x28 c:/freescale/kds_3.0.0/toolchain/bin/../lib/gcc/arm-none-eabi/4.8.4/../../../../arm-none-eabi/lib/armv7e-m/fpu\libg_s.a(lib_a-div.o)
 .debug_frame   0x00002888       0x20 c:/freescale/kds_3.0.0/toolchain/bin/../lib/gcc/arm-none-eabi/4.8.4/../../../../arm-none-eabi/lib/armv7e-m/fpu\libg_s.a(lib_a-gettzinfo.o)
 .debug_frame   0x000028a8       0x48 c:/freescale/kds_3.0.0/toolchain/bin/../lib/gcc/arm-none-eabi/4.8.4/../../../../arm-none-eabi/lib/armv7e-m/fpu\libg_s.a(lib_a-reent.o)
 .debug_frame   0x000028f0       0x20 c:/freescale/kds_3.0.0/toolchain/bin/../lib/gcc/arm-none-eabi/4.8.4/../../../../arm-none-eabi/lib/armv7e-m/fpu\libnosys.a(sbrk.o)
 .debug_frame   0x00002910       0x20 c:/freescale/kds_3.0.0/toolchain/bin/../lib/gcc/arm-none-eabi/4.8.4/../../../../arm-none-eabi/lib/armv7e-m/fpu\libnosys.a(_exit.o)
